{
  "contractName": "CommunityContractMock",
  "abi": [
    {
      "anonymous": false,
      "inputs": [
        {
          "indexed": true,
          "internalType": "address",
          "name": "previousOwner",
          "type": "address"
        },
        {
          "indexed": true,
          "internalType": "address",
          "name": "newOwner",
          "type": "address"
        }
      ],
      "name": "OwnershipTransferred",
      "type": "event"
    },
    {
      "anonymous": false,
      "inputs": [
        {
          "indexed": true,
          "internalType": "address",
          "name": "sender",
          "type": "address"
        },
        {
          "indexed": false,
          "internalType": "string",
          "name": "msg",
          "type": "string"
        }
      ],
      "name": "RoleAddedErrorMessage",
      "type": "event"
    },
    {
      "anonymous": false,
      "inputs": [
        {
          "indexed": true,
          "internalType": "bytes32",
          "name": "role",
          "type": "bytes32"
        },
        {
          "indexed": true,
          "internalType": "address",
          "name": "sender",
          "type": "address"
        }
      ],
      "name": "RoleCreated",
      "type": "event"
    },
    {
      "anonymous": false,
      "inputs": [
        {
          "indexed": true,
          "internalType": "bytes32",
          "name": "role",
          "type": "bytes32"
        },
        {
          "indexed": true,
          "internalType": "address",
          "name": "account",
          "type": "address"
        },
        {
          "indexed": true,
          "internalType": "address",
          "name": "sender",
          "type": "address"
        }
      ],
      "name": "RoleGranted",
      "type": "event"
    },
    {
      "anonymous": false,
      "inputs": [
        {
          "indexed": true,
          "internalType": "bytes32",
          "name": "sourceRole",
          "type": "bytes32"
        },
        {
          "indexed": true,
          "internalType": "bytes32",
          "name": "targetRole",
          "type": "bytes32"
        },
        {
          "indexed": true,
          "internalType": "address",
          "name": "sender",
          "type": "address"
        }
      ],
      "name": "RoleManaged",
      "type": "event"
    },
    {
      "anonymous": false,
      "inputs": [
        {
          "indexed": true,
          "internalType": "bytes32",
          "name": "role",
          "type": "bytes32"
        },
        {
          "indexed": true,
          "internalType": "address",
          "name": "account",
          "type": "address"
        },
        {
          "indexed": true,
          "internalType": "address",
          "name": "sender",
          "type": "address"
        }
      ],
      "name": "RoleRevoked",
      "type": "event"
    },
    {
      "stateMutability": "payable",
      "type": "fallback"
    },
    {
      "inputs": [],
      "name": "DEFAULT_ADMINS_ROLE",
      "outputs": [
        {
          "internalType": "bytes32",
          "name": "",
          "type": "bytes32"
        }
      ],
      "stateMutability": "view",
      "type": "function"
    },
    {
      "inputs": [],
      "name": "DEFAULT_MEMBERS_ROLE",
      "outputs": [
        {
          "internalType": "bytes32",
          "name": "",
          "type": "bytes32"
        }
      ],
      "stateMutability": "view",
      "type": "function"
    },
    {
      "inputs": [],
      "name": "DEFAULT_OWNERS_ROLE",
      "outputs": [
        {
          "internalType": "bytes32",
          "name": "",
          "type": "bytes32"
        }
      ],
      "stateMutability": "view",
      "type": "function"
    },
    {
      "inputs": [],
      "name": "DEFAULT_WEBX_ROLE",
      "outputs": [
        {
          "internalType": "bytes32",
          "name": "",
          "type": "bytes32"
        }
      ],
      "stateMutability": "view",
      "type": "function"
    },
    {
      "inputs": [],
      "name": "REPLENISH_AMOUNT",
      "outputs": [
        {
          "internalType": "uint256",
          "name": "",
          "type": "uint256"
        }
      ],
      "stateMutability": "view",
      "type": "function"
    },
    {
      "inputs": [],
      "name": "REWARD_AMOUNT",
      "outputs": [
        {
          "internalType": "uint256",
          "name": "",
          "type": "uint256"
        }
      ],
      "stateMutability": "view",
      "type": "function"
    },
    {
      "inputs": [
        {
          "internalType": "address[]",
          "name": "members",
          "type": "address[]"
        }
      ],
      "name": "addMembers",
      "outputs": [],
      "stateMutability": "nonpayable",
      "type": "function"
    },
    {
      "inputs": [
        {
          "internalType": "address[]",
          "name": "members",
          "type": "address[]"
        },
        {
          "internalType": "string[]",
          "name": "roles",
          "type": "string[]"
        }
      ],
      "name": "addRoles",
      "outputs": [],
      "stateMutability": "nonpayable",
      "type": "function"
    },
    {
      "inputs": [
        {
          "internalType": "string",
          "name": "role",
          "type": "string"
        }
      ],
      "name": "createRole",
      "outputs": [],
      "stateMutability": "nonpayable",
      "type": "function"
    },
    {
      "inputs": [],
      "name": "donateETH",
      "outputs": [],
      "stateMutability": "payable",
      "type": "function"
    },
    {
      "inputs": [
        {
          "internalType": "string",
          "name": "role",
          "type": "string"
        }
      ],
      "name": "getMembers",
      "outputs": [
        {
          "internalType": "address[]",
          "name": "",
          "type": "address[]"
        }
      ],
      "stateMutability": "view",
      "type": "function"
    },
    {
      "inputs": [],
      "name": "getMembers",
      "outputs": [
        {
          "internalType": "address[]",
          "name": "",
          "type": "address[]"
        }
      ],
      "stateMutability": "view",
      "type": "function"
    },
    {
      "inputs": [],
      "name": "getRoles",
      "outputs": [
        {
          "internalType": "string[]",
          "name": "",
          "type": "string[]"
        }
      ],
      "stateMutability": "view",
      "type": "function"
    },
    {
      "inputs": [
        {
          "internalType": "address",
          "name": "member",
          "type": "address"
        }
      ],
      "name": "getRoles",
      "outputs": [
        {
          "internalType": "string[]",
          "name": "",
          "type": "string[]"
        }
      ],
      "stateMutability": "view",
      "type": "function"
    },
    {
      "inputs": [],
      "name": "getSettings",
      "outputs": [
        {
          "internalType": "string",
          "name": "",
          "type": "string"
        },
        {
          "components": [
            {
              "internalType": "string",
              "name": "itype",
              "type": "string"
            },
            {
              "internalType": "string",
              "name": "idata",
              "type": "string"
            }
          ],
          "internalType": "struct CommunityContract.Image",
          "name": "",
          "type": "tuple"
        },
        {
          "internalType": "string",
          "name": "",
          "type": "string"
        }
      ],
      "stateMutability": "view",
      "type": "function"
    },
    {
      "inputs": [],
      "name": "init",
      "outputs": [],
      "stateMutability": "nonpayable",
      "type": "function"
    },
    {
      "inputs": [
        {
          "internalType": "string",
          "name": "p",
          "type": "string"
        },
        {
          "internalType": "bytes",
          "name": "pSig",
          "type": "bytes"
        },
        {
          "internalType": "string",
          "name": "rp",
          "type": "string"
        },
        {
          "internalType": "bytes",
          "name": "rpSig",
          "type": "bytes"
        }
      ],
      "name": "inviteAccept",
      "outputs": [],
      "stateMutability": "nonpayable",
      "type": "function"
    },
    {
      "inputs": [
        {
          "internalType": "bytes",
          "name": "pSig",
          "type": "bytes"
        },
        {
          "internalType": "bytes",
          "name": "rpSig",
          "type": "bytes"
        }
      ],
      "name": "invitePrepare",
      "outputs": [],
      "stateMutability": "nonpayable",
      "type": "function"
    },
    {
      "inputs": [
        {
          "internalType": "bytes",
          "name": "pSig",
          "type": "bytes"
        }
      ],
      "name": "inviteView",
      "outputs": [
        {
          "components": [
            {
              "internalType": "bytes",
              "name": "pSig",
              "type": "bytes"
            },
            {
              "internalType": "bytes",
              "name": "rpSig",
              "type": "bytes"
            },
            {
              "internalType": "uint256",
              "name": "gasCost",
              "type": "uint256"
            },
            {
              "internalType": "enum CommunityContract.ReimburseStatus",
              "name": "reimbursed",
              "type": "uint8"
            },
            {
              "internalType": "bool",
              "name": "used",
              "type": "bool"
            },
            {
              "internalType": "bool",
              "name": "exists",
              "type": "bool"
            }
          ],
          "internalType": "struct CommunityContract.inviteSignature",
          "name": "",
          "type": "tuple"
        }
      ],
      "stateMutability": "view",
      "type": "function"
    },
    {
      "inputs": [
        {
          "internalType": "string",
          "name": "sourceRole",
          "type": "string"
        },
        {
          "internalType": "string",
          "name": "targetRole",
          "type": "string"
        }
      ],
      "name": "manageRole",
      "outputs": [],
      "stateMutability": "nonpayable",
      "type": "function"
    },
    {
      "inputs": [],
      "name": "memberCount",
      "outputs": [
        {
          "internalType": "uint256",
          "name": "",
          "type": "uint256"
        }
      ],
      "stateMutability": "view",
      "type": "function"
    },
    {
      "inputs": [
        {
          "internalType": "string",
          "name": "role",
          "type": "string"
        }
      ],
      "name": "memberCount",
      "outputs": [
        {
          "internalType": "uint256",
          "name": "",
          "type": "uint256"
        }
      ],
      "stateMutability": "view",
      "type": "function"
    },
    {
      "inputs": [],
      "name": "owner",
      "outputs": [
        {
          "internalType": "address",
          "name": "",
          "type": "address"
        }
      ],
      "stateMutability": "view",
      "type": "function"
    },
    {
      "inputs": [
        {
          "internalType": "address[]",
          "name": "members",
          "type": "address[]"
        }
      ],
      "name": "removeMembers",
      "outputs": [],
      "stateMutability": "nonpayable",
      "type": "function"
    },
    {
      "inputs": [
        {
          "internalType": "address[]",
          "name": "members",
          "type": "address[]"
        },
        {
          "internalType": "string[]",
          "name": "roles",
          "type": "string[]"
        }
      ],
      "name": "removeRoles",
      "outputs": [],
      "stateMutability": "nonpayable",
      "type": "function"
    },
    {
      "inputs": [],
      "name": "renounceOwnership",
      "outputs": [],
      "stateMutability": "nonpayable",
      "type": "function"
    },
    {
      "inputs": [
        {
          "internalType": "string",
          "name": "_title",
          "type": "string"
        },
        {
          "components": [
            {
              "internalType": "string",
              "name": "itype",
              "type": "string"
            },
            {
              "internalType": "string",
              "name": "idata",
              "type": "string"
            }
          ],
          "internalType": "struct CommunityContract.Image",
          "name": "_ico",
          "type": "tuple"
        },
        {
          "internalType": "string",
          "name": "_ticker",
          "type": "string"
        }
      ],
      "name": "setSettings",
      "outputs": [],
      "stateMutability": "nonpayable",
      "type": "function"
    },
    {
      "inputs": [
        {
          "internalType": "address",
          "name": "newOwner",
          "type": "address"
        }
      ],
      "name": "transferOwnership",
      "outputs": [],
      "stateMutability": "nonpayable",
      "type": "function"
    },
    {
      "inputs": [],
      "name": "getRewardAmount",
      "outputs": [
        {
          "internalType": "uint256",
          "name": "",
          "type": "uint256"
        }
      ],
      "stateMutability": "view",
      "type": "function"
    },
    {
      "inputs": [],
      "name": "getReplenishAmount",
      "outputs": [
        {
          "internalType": "uint256",
          "name": "",
          "type": "uint256"
        }
      ],
      "stateMutability": "view",
      "type": "function"
    }
  ],
  "bytecode": "0x608060405234801561001057600080fd5b50613e79806100206000396000f3fe6080604052600436106101cd5760003560e01c80638da5cb5b116100f7578063cf84944211610095578063f2fde38b11610064578063f2fde38b146104ac578063fb92da6c146104cc578063feaffb88146101cf578063ff15f538146104ec576101cd565b8063cf849442146102bc578063d6388ad114610462578063d653f90d14610482578063e1c7392a14610497576101cd565b8063af17d38a116100d1578063af17d38a146103f8578063b01a70c614610418578063b2605b7c1461042d578063ce6ccfaf14610442576101cd565b80638da5cb5b146103a15780639d15076b146103c35780639eab5253146103e3576101cd565b806355f813711161016f578063710613981161013e578063710613981461033e578063715018a61461036057806385b4bb53146103755780638b4c40b014610399576101cd565b806355f81371146102bc57806356250571146102d157806356366abb146102fe5780636f4d469b1461031e576101cd565b806317503a77116101ab57806317503a771461022f5780633c80d14f1461024f57806346ee84b01461026f5780634d4c9d7c1461028f576101cd565b806309a69f57146101cf57806311aee380146101fa57806312e1c7451461020f575b005b3480156101db57600080fd5b506101e4610501565b6040516101f19190613888565b60405180910390f35b34801561020657600080fd5b506101e461050d565b34801561021b57600080fd5b506101cd61022a366004613293565b61052a565b34801561023b57600080fd5b506101cd61024a366004613376565b610660565b34801561025b57600080fd5b506101e461026a366004613343565b6108a6565b34801561027b57600080fd5b506101cd61028a366004613260565b6108d3565b34801561029b57600080fd5b506102af6102aa366004613343565b610980565b6040516101f19190613d52565b3480156102c857600080fd5b506101e4610b3b565b3480156102dd57600080fd5b506102f16102ec366004613343565b610b46565b6040516101f191906137db565b34801561030a57600080fd5b506101cd61031936600461347f565b610bfd565b34801561032a57600080fd5b506101cd610339366004613260565b610c8d565b34801561034a57600080fd5b50610353610d3a565b6040516101f19190613828565b34801561036c57600080fd5b506101cd610dc0565b34801561038157600080fd5b5061038a610e3f565b6040516101f193929190613949565b6101cd6110b8565b3480156103ad57600080fd5b506103b66110ba565b6040516101f191906137c7565b3480156103cf57600080fd5b506101cd6103de3660046133d7565b6110c9565b3480156103ef57600080fd5b506102f161176e565b34801561040457600080fd5b506101cd610413366004613343565b611786565b34801561042457600080fd5b506101e461189a565b34801561043957600080fd5b506101e46118a7565b34801561044e57600080fd5b5061035361045d366004613245565b6118b5565b34801561046e57600080fd5b506101cd61047d366004613376565b61198a565b34801561048e57600080fd5b506101e4611a02565b3480156104a357600080fd5b506101cd611a0f565b3480156104b857600080fd5b506101cd6104c7366004613245565b611b8c565b3480156104d857600080fd5b506101cd6104e7366004613293565b611c1b565b3480156104f857600080fd5b506101e4611cfd565b66038d7ea4c680005b90565b600061052561026a666d656d6265727360c81b611d08565b905090565b815181516000805b838210156106585761056486838151811061054957fe5b6020026020010151666d656d6265727360c81b60001b611dfe565b6105ba5761057b666d656d6265727360c81b611d08565b60405160200161058b91906136e2565b60408051601f198184030181529082905262461bcd60e51b82526105b1916004016138af565b60405180910390fd5b5060005b8281101561064d576105f26105d1611e3b565b6105ed8784815181106105e057fe5b6020026020010151611e3f565b611e5d565b61061a5784818151811061060257fe5b602002602001015160405160200161058b919061376c565b61064586838151811061062957fe5b60200260200101516106408784815181106105e057fe5b611f56565b6001016105be565b600190910190610532565b505050505050565b610668611e3b565b630eecac4f60e31b61067a8282611dfe565b61068382611d08565b60405160200161069391906136e2565b604051602081830303815290604052906106c05760405162461bcd60e51b81526004016105b191906138af565b508360005a905060cf866040516106d79190613602565b9081526040519081900360200190206003015460ff6201000090910416156107115760405162461bcd60e51b81526004016105b190613c48565b8560cf876040516107229190613602565b90815260200160405180910390206000019080519060200190610746929190613042565b508460cf876040516107589190613602565b9081526020016040518091039020600101908051906020019061077c929190613042565b50600060cf8760405161078f9190613602565b908152604051908190036020019020600301805460ff191660018360028111156107b557fe5b0217905550600060cf876040516107cc9190613602565b908152602001604051809103902060030160016101000a81548160ff021916908315150217905550600160cf876040516108069190613602565b9081526040519081900360200190206003018054911515620100000262ff00001990921691909117905560005a60405190915061753082840301903a82029061087890829060cf90610859908990613602565b908152604051908190036020019020600201549063ffffffff611ff716565b60cf866040516108889190613602565b90815260405190819003602001902060020155505050505050505050565b60006108cb60cd60006108b885611e3f565b815260200190815260200160002061201c565b90505b919050565b6108db611e3b565b666d656d6265727360c81b60006108f28383611e5d565b905060018115151461090383611d08565b604051602001610913919061376c565b604051602081830303815290604052906109405760405162461bcd60e51b81526004016105b191906138af565b50835160005b818110156106585761097886828151811061095d57fe5b6020026020010151666d656d6265727360c81b60001b612027565b600101610946565b6109886130c0565b60cf826040516109989190613602565b9081526040805160209281900383018120805460026001821615610100026000190190911604601f8101859004909402820160e090810190935260c08201848152919390928492918491840182828015610a335780601f10610a0857610100808354040283529160200191610a33565b820191906000526020600020905b815481529060010190602001808311610a1657829003601f168201915b50505050508152602001600182018054600181600116156101000203166002900480601f016020809104026020016040519081016040528092919081815260200182805460018160011615610100020316600290048015610ad55780601f10610aaa57610100808354040283529160200191610ad5565b820191906000526020600020905b815481529060010190602001808311610ab857829003601f168201915b50505091835250506002828101546020830152600383015460409092019160ff1690811115610b0057fe5b6002811115610b0b57fe5b81526003919091015460ff6101008204811615156020840152620100009091041615156040909101529050919050565b66038d7ea4c6800081565b60606000610b5383611e3f565b600081815260cd6020526040812091925090610b6e9061201c565b9050606081604051908082528060200260200182016040528015610b9c578160200160208202803883390190505b50905060005b82811015610bf457600084815260cd60205260409020610bc8908263ffffffff6120c816565b828281518110610bd457fe5b6001600160a01b0390921660209283029190910190910152600101610ba2565b50949350505050565b610c05611e3b565b6065546001600160a01b03908116911614610c325760405162461bcd60e51b81526004016105b190613bc5565b8251610c459060d0906020860190613042565b5081518051610c5c9160d191602090910190613042565b506020808301518051610c739260d2920190613042565b508051610c879060d3906020840190613042565b50505050565b610c95611e3b565b666d656d6265727360c81b6000610cac8383611e5d565b9050600181151514610cbd83611d08565b604051602001610ccd919061376c565b60405160208183030381529060405290610cfa5760405162461bcd60e51b81526004016105b191906138af565b50835160005b8181101561065857610d32868281518110610d1757fe5b6020026020010151666d656d6265727360c81b60001b611f56565b600101610d00565b60608060c954604051908082528060200260200182016040528015610d7357816020015b6060815260200190600190039081610d5e5790505b50905060005b60c954811015610dba57600081815260cb6020526040902054610d9b90611d08565b828281518110610da757fe5b6020908102919091010152600101610d79565b50905090565b610dc8611e3b565b6065546001600160a01b03908116911614610df55760405162461bcd60e51b81526004016105b190613bc5565b6065546040516000916001600160a01b0316907f8be0079c531659141344cd1fd0a4f28419497f9722a3daafe3b4186f6b6457e0908390a3606580546001600160a01b0319169055565b6060610e49613101565b60d08054604080516020601f600260001961010060018816150201909516949094049384018190048102820181019092528281526060939260d19260d392918591830182828015610edb5780601f10610eb057610100808354040283529160200191610edb565b820191906000526020600020905b815481529060010190602001808311610ebe57829003601f168201915b505060408051875460606020601f6002600019610100600187161502019094169390930492830181900402830181018452928201818152969950909588955086945092508491840182828015610f725780601f10610f4757610100808354040283529160200191610f72565b820191906000526020600020905b815481529060010190602001808311610f5557829003601f168201915b50505050508152602001600182018054600181600116156101000203166002900480601f0160208091040260200160405190810160405280929190818152602001828054600181600116156101000203166002900480156110145780601f10610fe957610100808354040283529160200191611014565b820191906000526020600020905b815481529060010190602001808311610ff757829003601f168201915b5050509190925250508254604080516020601f600260001961010060018816150201909516949094049384018190048102820181019092528281529395508492508301828280156110a65780601f1061107b576101008083540402835291602001916110a6565b820191906000526020600020905b81548152906001019060200180831161108957829003601f168201915b50505050509050925092509250909192565b565b6065546001600160a01b031690565b6110d1611e3b565b630eecac4f60e31b6110e38282611dfe565b6110ec82611d08565b6040516020016110fc91906136e2565b604051602081830303815290604052906111295760405162461bcd60e51b81526004016105b191906138af565b508460005a60975490915060ff166111535760405162461bcd60e51b81526004016105b190613d1b565b6097805460ff1916905560405160cf9061116e908990613602565b9081526040519081900360200190206003015460ff61010090910416156111a75760405162461bcd60e51b81526004016105b190613a1f565b6000806111b68a8a8a8a6120d4565b9150915060606111e8604051806040016040528060018152602001601d60f91b8152508c61212890919063ffffffff16565b9050606061122c604051806040016040528060018152602001600b60fa1b8152508360028151811061121657fe5b602002602001015161212890919063ffffffff16565b9050606061125c604051806040016040528060018152602001601d60f91b8152508c61212890919063ffffffff16565b90506001600160a01b038516158061127b57506001600160a01b038416155b806112f257508960405160200161129291906138af565b6040516020818303038152906040528051906020012060cf8d6040516112b89190613602565b90815260200160405180910390206001016040516020016112d991906138c2565b6040516020818303038152906040528051906020012014155b8061132b5750836001600160a01b031661131f8260008151811061131257fe5b60200260200101516121e8565b6001600160a01b031614155b806113575750306001600160a01b031661134b8460018151811061131257fe5b6001600160a01b031614155b156113745760405162461bcd60e51b81526004016105b190613cb4565b600061138a86666d656d6265727360c81b611e5d565b1561146a576113a385666d656d6265727360c81b611f56565b60005b8351811015611464576113c2876105ed8684815181106105e057fe5b156113e357600191506113de866106408684815181106105e057fe5b61145c565b6113eb611e3b565b6001600160a01b03167fd79dde06f6a105266dd551d05cb7ded4ae453379f80a5a23b14253ad72434edc85838151811061142157fe5b6020026020010151604051602001611439919061373d565b60408051601f1981840301815290829052611453916138af565b60405180910390a25b6001016113a6565b506114e2565b611472611e3b565b6001600160a01b03167fd79dde06f6a105266dd551d05cb7ded4ae453379f80a5a23b14253ad72434edc6114af666d656d6265727360c81b611d08565b6040516020016114bf919061373d565b60408051601f19818403018152908290526114d9916138af565b60405180910390a25b6001811515141561153d57600160cf8e6040516114ff9190613602565b90815260405190819003602001902060030180549115156101000261ff001990921691909117905561152f612383565b611538856123d3565b611555565b60405162461bcd60e51b81526004016105b190613ce4565b50506097805460ff1916600117905550600092508291506115739050565b60cf846040516115839190613602565b9081526040519081900360200190206003015460ff1660028111156115a457fe5b14156115ff5760005a60405181850362013178013a810294509192506115d490849060cf90610859908990613602565b60cf866040516115e49190613602565b90815260405190819003602001902060020155506115ff9050565b60cf8360405161160f9190613602565b908152602001604051809103902060020154905047811115801561169d5750600060cf846040516116409190613602565b9081526040519081900360200190206003015460ff16600281111561166157fe5b148061169d5750600160cf8460405161167a9190613602565b9081526040519081900360200190206003015460ff16600281111561169b57fe5b145b1561172557600260cf846040516116b49190613602565b908152604051908190036020019020600301805460ff191660018360028111156116da57fe5b02179055506116e7611e3b565b6001600160a01b03166108fc829081150290604051600060405180830381858888f1935050505015801561171f573d6000803e3d6000fd5b50611763565b600160cf846040516117379190613602565b908152604051908190036020019020600301805460ff1916600183600281111561175d57fe5b02179055505b505050505050505050565b60606105256102ec666d656d6265727360c81b611d08565b61178e611e3b565b6065546001600160a01b039081169116146117bb5760405162461bcd60e51b81526004016105b190613bc5565b60ca60006117c883611e3f565b8152602001908152602001600020546000146117f65760405162461bcd60e51b81526004016105b190613b0a565b60ca600061180b61180684612419565b611e3f565b8152602001908152602001600020546000146118395760405162461bcd60e51b81526004016105b190613b0a565b61184a61184582611e3f565b612524565b61186661185682611e3f565b666d656d6265727360c81b61259d565b611881656f776e65727360d01b61187c83611e3f565b61259d565b6118976561646d696e7360d01b61187c83611e3f565b50565b656f776e65727360d01b81565b666d656d6265727360c81b81565b6001600160a01b038116600090815260cc60205260408120606091906118da9061201c565b905060608160405190808252806020026020018201604052801561191257816020015b60608152602001906001900390816118fd5790505b50905060005b82811015611982576001600160a01b038516600090815260cc602052604081206119639160cb9161194f908563ffffffff6120c816565b815260200190815260200160002054611d08565b82828151811061196f57fe5b6020908102919091010152600101611918565b509392505050565b611992611e3b565b6065546001600160a01b039081169116146119bf5760405162461bcd60e51b81526004016105b190613bc5565b656f776e65727360d01b6119d282611e3f565b14156119e9578060405160200161058b9190613777565b6119fe6119f583611e3f565b61187c83611e3f565b5050565b6561646d696e7360d01b81565b600054610100900460ff1680611a285750611a28612669565b80611a36575060005460ff16155b611a525760405162461bcd60e51b81526004016105b190613bfa565b600054610100900460ff16158015611a7d576000805460ff1961ff0019909116610100171660011790555b611a8561266f565b611a8d6126ed565b600160c955611aa4656f776e65727360d01b612524565b611ab66561646d696e7360d01b612524565b611ac9666d656d6265727360c81b612524565b611ad9630eecac4f60e31b612524565b611af3611ae4611e3b565b656f776e65727360d01b611f56565b611b0d611afe611e3b565b6561646d696e7360d01b611f56565b611b25611b18611e3b565b630eecac4f60e31b611f56565b611b41656f776e65727360d01b6561646d696e7360d01b61259d565b611b5e6561646d696e7360d01b666d656d6265727360c81b61259d565b611b786561646d696e7360d01b630eecac4f60e31b61259d565b8015611897576000805461ff001916905550565b611b94611e3b565b6065546001600160a01b03908116911614611bc15760405162461bcd60e51b81526004016105b190613bc5565b611bca81612763565b611be4611bd56110ba565b656f776e65727360d01b612027565b611bf781656f776e65727360d01b611f56565b611c0a816561646d696e7360d01b611f56565b61189781630eecac4f60e31b611f56565b815181516000805b8382101561065857611c3a86838151811061054957fe5b611c515761057b666d656d6265727360c81b611d08565b5060005b82811015611cf257666d656d6265727360c81b60001b611c7a8683815181106105e057fe5b1415611ca457848181518110611c8c57fe5b602002602001015160405160200161058b919061364c565b611caf6105d1611e3b565b611cbf5784818151811061060257fe5b611cea868381518110611cce57fe5b6020026020010151611ce58784815181106105e057fe5b612027565b600101611c55565b600190910190611c23565b630eecac4f60e31b81565b606060005b60208160ff16108015611d3b5750828160ff1660208110611d2a57fe5b1a60f81b6001600160f81b03191615155b15611d4857600101611d0d565b60608160ff166040519080825280601f01601f191660200182016040528015611d78576020820181803883390190505b509050600091505b60208260ff16108015611dae5750838260ff1660208110611d9d57fe5b1a60f81b6001600160f81b03191615155b15611df757838260ff1660208110611dc257fe5b1a60f81b818360ff1681518110611dd557fe5b60200101906001600160f81b031916908160001a905350600190910190611d80565b9392505050565b600081815260ca60209081526040808320546001600160a01b038616845260cc9092528220611e329163ffffffff61281a16565b90505b92915050565b3390565b80516000908290611e545750600090506108ce565b50506020015190565b600081815260ca60205260408120548190801515611e7a85611d08565b604051602001611e8a9190613694565b60405160208183030381529060405290611eb75760405162461bcd60e51b81526004016105b191906138af565b5060005b6001600160a01b038616600090815260cc60205260409020611edc9061201c565b811015611f4c576001600160a01b038616600090815260cc60205260408120611f3191849160ce9190611f15908663ffffffff6120c816565b815260200190815260200160002061281a90919063ffffffff16565b151560011415611f445760019250611f4c565b600101611ebb565b5090949350505050565b600081815260ca60209081526040808320546001600160a01b038616845260cc909252909120611f8b9163ffffffff61282616565b50600081815260cd60205260409020611faa908363ffffffff61283216565b50611fb3611e3b565b6001600160a01b0316826001600160a01b0316827f2f8788117e7eff1d82e926ec794901d17c78024a50270940304540a733656f0d60405160405180910390a45050565b600082820183811015611e325760405162461bcd60e51b81526004016105b190613ad3565b60006108cb82612847565b600081815260ca60209081526040808320546001600160a01b038616845260cc90925290912061205c9163ffffffff61284b16565b50600081815260cd6020526040902061207b908363ffffffff61285716565b50612084611e3b565b6001600160a01b0316826001600160a01b0316827ff6391f5c32d9c69d2a47ea670b442974b53935d1edc7fd64eb21e047a839171b60405160405180910390a45050565b6000611e32838361286c565b60008060006120e2876128b1565b905060006120ef866128b1565b90506000612103838963ffffffff6129a116565b90506000612117838863ffffffff6129a116565b919a91995090975050505050505050565b606061213261311b565b61213b84612acf565b905061214561311b565b61214e84612acf565b90506060612162838363ffffffff612af416565b60010160405190808252806020026020018201604052801561219857816020015b60608152602001906001900390816121835790505b50905060005b81518110156121de576121bf6121ba858563ffffffff612b6116565b612b74565b8282815181106121cb57fe5b602090810291909101015260010161219e565b5095945050505050565b60008181808060025b602a811015612378576101008402935084818151811061220d57fe5b0160200151855160f89190911c935085906001830190811061222b57fe5b016020015160f81c915060616001600160a01b0384161080159061225957506066836001600160a01b031611155b15612269576057830392506122cd565b6041836001600160a01b03161015801561228d57506046836001600160a01b031611155b1561229d576037830392506122cd565b6030836001600160a01b0316101580156122c157506039836001600160a01b031611155b156122cd576030830392505b6061826001600160a01b0316101580156122f157506066826001600160a01b031611155b1561230157605782039150612365565b6041826001600160a01b03161015801561232557506046826001600160a01b031611155b1561233557603782039150612365565b6030826001600160a01b03161015801561235957506039826001600160a01b031611155b15612365576030820391505b60108302820193909301926002016121f1565b509195945050505050565b4766038d7ea4c68000116110b857612399611e3b565b6040516001600160a01b03919091169060009066038d7ea4c680009082818181858883f19350505050158015611897573d6000803e3d6000fd5b4766038d7ea4c6800011611897576040516001600160a01b0382169060009066038d7ea4c680009082818181858883f193505050501580156119fe573d6000803e3d6000fd5b606080829050606081516040519080825280601f01601f19166020018201604052801561244d576020820181803883390190505b50905060005b825181101561198257604183828151811061246a57fe5b016020015160f81c108015906124945750605a83828151811061248957fe5b016020015160f81c11155b156124e1578281815181106124a557fe5b602001015160f81c60f81b60f81c60200160f81b8282815181106124c557fe5b60200101906001600160f81b031916908160001a90535061251c565b8281815181106124ed57fe5b602001015160f81c60f81b82828151811061250457fe5b60200101906001600160f81b031916908160001a9053505b600101612453565b60c98054600083815260ca6020908152604080832084905592825260cb9052208290555461255990600163ffffffff611ff716565b60c955612564611e3b565b6001600160a01b0316817f23a0bd0aafa2b64f6ce58fb7b33197d048845a3add78dc637ce175ce8851b47960405160405180910390a350565b600082815260ca60205260409020546125c85760405162461bcd60e51b81526004016105b190613c7d565b600081815260ca60205260409020546125f35760405162461bcd60e51b81526004016105b190613c7d565b600081815260ca602090815260408083205485845281842054845260ce9092529091206126259163ffffffff61282616565b5061262e611e3b565b6001600160a01b031681837fde36c55b359925537746aca77799227e892f3c3b7ba7001e85cac71d3190378660405160405180910390a45050565b303b1590565b600054610100900460ff16806126885750612688612669565b80612696575060005460ff16155b6126b25760405162461bcd60e51b81526004016105b190613bfa565b600054610100900460ff161580156126dd576000805460ff1961ff0019909116610100171660011790555b6126e5612bc4565b611b78612c45565b600054610100900460ff16806127065750612706612669565b80612714575060005460ff16155b6127305760405162461bcd60e51b81526004016105b190613bfa565b600054610100900460ff1615801561275b576000805460ff1961ff0019909116610100171660011790555b611b78612d1f565b61276b611e3b565b6065546001600160a01b039081169116146127985760405162461bcd60e51b81526004016105b190613bc5565b6001600160a01b0381166127be5760405162461bcd60e51b81526004016105b190613a8d565b6065546040516001600160a01b038084169216907f8be0079c531659141344cd1fd0a4f28419497f9722a3daafe3b4186f6b6457e090600090a3606580546001600160a01b0319166001600160a01b0392909216919091179055565b6000611e328383612dae565b6000611e328383612dc6565b6000611e32836001600160a01b038416612dc6565b5490565b6000611e328383612e10565b6000611e32836001600160a01b038416612e10565b8154600090821061288f5760405162461bcd60e51b81526004016105b1906139dd565b82600001828154811061289e57fe5b9060005260206000200154905092915050565b6040805180820190915260208082527f19457468657265756d205369676e6564204d6573736167653a0a303030303030908201528151600091906039820190620f423f81111561290057600080fd5b6000620186a05b801561295457600081848161291857fe5b0490508061292f578261292f5750600a9004612907565b80820290930392600190920191600a8260019096019504915060300180855350612907565b8161296257601b9150612969565b601a820191505b818552848760405160200161297f92919061361e565b6040516020818303038152906040528051906020012095505050505050919050565b600081516041146129c45760405162461bcd60e51b81526004016105b190613a56565b60208201516040830151606084015160001a7f7fffffffffffffffffffffffffffffff5d576e7357a4501ddfe92f46681b20a0821115612a165760405162461bcd60e51b81526004016105b190613b41565b8060ff16601b14158015612a2e57508060ff16601c14155b15612a4b5760405162461bcd60e51b81526004016105b190613b83565b600060018783868660405160008152602001604052604051612a709493929190613891565b6020604051602081039080840390855afa158015612a92573d6000803e3d6000fd5b5050604051601f1901519150506001600160a01b038116612ac55760405162461bcd60e51b81526004016105b1906139a6565b9695505050505050565b612ad761311b565b506040805180820190915281518152602082810190820152919050565b6000808260000151612b188560000151866020015186600001518760200151612ed6565b0190505b83516020850151018111612b5a578251602080860151865191860151600190950194612b52929185039091039084908490612ed6565b019050612b1c565b5092915050565b612b6961311b565b612b5a838383612f93565b60608082600001516040519080825280601f01601f191660200182016040528015612ba6576020820181803883390190505b5090506000602082019050612b5a8185602001518660000151613004565b600054610100900460ff1680612bdd5750612bdd612669565b80612beb575060005460ff16155b612c075760405162461bcd60e51b81526004016105b190613bfa565b600054610100900460ff16158015611b78576000805460ff1961ff0019909116610100171660011790558015611897576000805461ff001916905550565b600054610100900460ff1680612c5e5750612c5e612669565b80612c6c575060005460ff16155b612c885760405162461bcd60e51b81526004016105b190613bfa565b600054610100900460ff16158015612cb3576000805460ff1961ff0019909116610100171660011790555b6000612cbd611e3b565b606580546001600160a01b0319166001600160a01b038316908117909155604051919250906000907f8be0079c531659141344cd1fd0a4f28419497f9722a3daafe3b4186f6b6457e0908290a3508015611897576000805461ff001916905550565b600054610100900460ff1680612d385750612d38612669565b80612d46575060005460ff16155b612d625760405162461bcd60e51b81526004016105b190613bfa565b600054610100900460ff16158015612d8d576000805460ff1961ff0019909116610100171660011790555b6097805460ff191660011790558015611897576000805461ff001916905550565b60009081526001919091016020526040902054151590565b6000612dd28383612dae565b612e0857508154600181810184556000848152602080822090930184905584548482528286019093526040902091909155611e35565b506000611e35565b60008181526001830160205260408120548015612ecc5783546000198083019190810190600090879083908110612e4357fe5b9060005260206000200154905080876000018481548110612e6057fe5b600091825260208083209091019290925582815260018981019092526040902090840190558654879080612e9057fe5b60019003818190600052602060002001600090559055866001016000878152602001908152602001600020600090556001945050505050611e35565b6000915050611e35565b60008381868511612f845760208511612f495783518251600019600860208990030260020a011991821690888a018890039083165b828114612f3b57818610612f29578a8a019650505050505050612f8b565b50600190940180519094908316612f0b565b859650505050505050612f8b565b508383206000905b8588038211612f825785832081811415612f715783945050505050612f8b565b506001928301929190910190612f51565b505b5050508284015b949350505050565b612f9b61311b565b6000612fb98560000151866020015186600001518760200151612ed6565b60208087018051918601919091528051820385528651905191925001811415612fe55760008552612ffb565b8351835186519101900385528351810160208601525b50909392505050565b5b60208110613024578151835260209283019290910190601f1901613005565b905182516020929092036101000a6000190180199091169116179052565b828054600181600116156101000203166002900490600052602060002090601f016020900481019282601f1061308357805160ff19168380011785556130b0565b828001600101855582156130b0579182015b828111156130b0578251825591602001919060010190613095565b506130bc929150613135565b5090565b6040518060c00160405280606081526020016060815260200160008152602001600060028111156130ed57fe5b815260006020820181905260409091015290565b604051806040016040528060608152602001606081525090565b604051806040016040528060008152602001600081525090565b61050a91905b808211156130bc576000815560010161313b565b80356001600160a01b0381168114611e3557600080fd5b600082601f830112613176578081fd5b813561318961318482613df7565b613dd0565b8181529150602080830190848101818402860182018710156131aa57600080fd5b60005b848110156131d1576131bf888361314f565b845292820192908201906001016131ad565b505050505092915050565b600082601f8301126131ec578081fd5b813567ffffffffffffffff811115613202578182fd5b613215601f8201601f1916602001613dd0565b915080825283602082850101111561322c57600080fd5b8060208401602084013760009082016020015292915050565b600060208284031215613256578081fd5b611e32838361314f565b600060208284031215613271578081fd5b813567ffffffffffffffff811115613287578182fd5b612f8b84828501613166565b600080604083850312156132a5578081fd5b823567ffffffffffffffff808211156132bc578283fd5b6132c886838701613166565b93506020915081850135818111156132de578384fd5b85019050601f810186136132f0578283fd5b80356132fe61318482613df7565b81815283810190838501865b84811015613333576133218b8884358901016131dc565b8452928601929086019060010161330a565b5096999098509650505050505050565b600060208284031215613354578081fd5b813567ffffffffffffffff81111561336a578182fd5b612f8b848285016131dc565b60008060408385031215613388578182fd5b823567ffffffffffffffff8082111561339f578384fd5b6133ab868387016131dc565b935060208501359150808211156133c0578283fd5b506133cd858286016131dc565b9150509250929050565b600080600080608085870312156133ec578182fd5b843567ffffffffffffffff80821115613403578384fd5b61340f888389016131dc565b95506020870135915080821115613424578384fd5b613430888389016131dc565b94506040870135915080821115613445578384fd5b613451888389016131dc565b93506060870135915080821115613466578283fd5b50613473878288016131dc565b91505092959194509250565b600080600060608486031215613493578283fd5b833567ffffffffffffffff808211156134aa578485fd5b6134b6878388016131dc565b945060208601359150808211156134cb578384fd5b818601604081890312156134dd578485fd5b6134e76040613dd0565b92508035828111156134f7578586fd5b613503898284016131dc565b845250602081013582811115613517578586fd5b613523898284016131dc565b602085015250919350604086013591508082111561353f578283fd5b5061354c868287016131dc565b9150509250925092565b6000815180845261356e816020860160208601613e17565b601f01601f19169290920160200192915050565b7f696e766974696e67207573657220646964206e6f742068617665207065726d698152727373696f6e20746f2061646420726f6c65202760681b602082015260330190565b7f53656e6465722063616e206e6f74206d616e616765204d656d62657273207769815268746820726f6c65202760b81b602082015260290190565b60008251613614818460208701613e17565b9190910192915050565b60008351613630818460208801613e17565b8351908301613643828260208801613e17565b01949350505050565b60007443616e206e6f742072656d6f766520726f6c65202760581b8252825161367c816015850160208701613e17565b602760f81b6015939091019283015250601601919050565b60006a5375636820726f6c65202760a81b825282516136ba81600b850160208701613e17565b702720646f6573206e6f742065786973747360781b600b939091019283015250601c01919050565b60007f546172676574206163636f756e74206d757374206265207769746820726f6c65825261202760f01b60208301528251613725816022850160208701613e17565b602760f81b6022939091019283015250602301919050565b600061374882613582565b8351613758818360208801613e17565b602760f81b91019081526001019392505050565b6000613748826135c7565b60007f746172676574526f6c6520d181616e206e6f7420626520270000000000000000825282516137af816018850160208701613e17565b602760f81b6018939091019283015250601901919050565b6001600160a01b0391909116815260200190565b6020808252825182820181905260009190848201906040850190845b8181101561381c5783516001600160a01b0316835292840192918401916001016137f7565b50909695505050505050565b6000602080830181845280855180835260408601915060408482028701019250838701855b8281101561387b57603f19888603018452613869858351613556565b9450928501929085019060010161384d565b5092979650505050505050565b90815260200190565b93845260ff9290921660208401526040830152606082015260800190565b600060208252611e326020830184613556565b600060208083018184528285546001808216600081146138e957600181146139075761393c565b60028304607f16855260ff198316604089015260608801935061393c565b60028304808652898852868820885b828110156139325781548b820160400152908401908801613916565b8a01604001955050505b5091979650505050505050565b60006060825261395c6060830186613556565b82810360208401528451604082526139776040830182613556565b6020870151915082810360208401526139908183613556565b925050508281036040840152612ac58185613556565b60208082526018908201527f45434453413a20696e76616c6964207369676e61747572650000000000000000604082015260600190565b60208082526022908201527f456e756d657261626c655365743a20696e646578206f7574206f6620626f756e604082015261647360f01b606082015260800190565b6020808252601e908201527f53756368207369676e617475726520697320616c726561647920757365640000604082015260600190565b6020808252601f908201527f45434453413a20696e76616c6964207369676e6174757265206c656e67746800604082015260600190565b60208082526026908201527f4f776e61626c653a206e6577206f776e657220697320746865207a65726f206160408201526564647265737360d01b606082015260800190565b6020808252601b908201527f536166654d6174683a206164646974696f6e206f766572666c6f770000000000604082015260600190565b6020808252601b908201527f5375636820726f6c6520697320616c7265616479206578697374730000000000604082015260600190565b60208082526022908201527f45434453413a20696e76616c6964207369676e6174757265202773272076616c604082015261756560f01b606082015260800190565b60208082526022908201527f45434453413a20696e76616c6964207369676e6174757265202776272076616c604082015261756560f01b606082015260800190565b6020808252818101527f4f776e61626c653a2063616c6c6572206973206e6f7420746865206f776e6572604082015260600190565b6020808252602e908201527f436f6e747261637420696e7374616e63652068617320616c726561647920626560408201526d195b881a5b9a5d1a585b1a5e995960921b606082015260800190565b6020808252818101527f53756368207369676e617475726520697320616c726561647920657869737473604082015260600190565b6020808252601b908201527f536f7572636520726f6c6520646f6573206e6f74206578697374730000000000604082015260600190565b6020808252601690820152750a6d2cedcc2e8eae4ca40c2e4ca40dad2e6dac2e8c6d60531b604082015260600190565b60208082526017908201527f43616e206e6f7420616464206e6f206f6e6520726f6c65000000000000000000604082015260600190565b6020808252601f908201527f5265656e7472616e637947756172643a207265656e7472616e742063616c6c00604082015260600190565b600060208252825160c06020840152613d6e60e0840182613556565b6020850151848203601f190160408601529150613d8b8183613556565b604086015160608601526060860151925060038310613da657fe5b8260808601526080860151151560a086015260a0860151151560c086015280935050505092915050565b60405181810167ffffffffffffffff81118282101715613def57600080fd5b604052919050565b600067ffffffffffffffff821115613e0d578081fd5b5060209081020190565b60005b83811015613e32578181015183820152602001613e1a565b83811115610c87575050600091015256fea2646970667358221220cc48172b49f231fd93e75ed7f2d1b6d30f075ad078f203313ca0c301dd961ee364736f6c63430006020033",
  "source": "pragma solidity >=0.6.0 <0.7.0;\r\npragma experimental ABIEncoderV2;\r\nimport \"../CommunityContract.sol\";\r\n\r\ncontract CommunityContractMock is CommunityContract {\r\n   \r\n   function getRewardAmount() public view returns(uint256) {\r\n       // uint256 public constant REWARD_AMOUNT = 100000000000000; // 0.001 * 1e18\r\n       return REWARD_AMOUNT;\r\n   }\r\n   function getReplenishAmount() public view returns(uint256) {\r\n       // uint256 public constant REPLENISH_AMOUNT = 100000000000000; // 0.001 * 1e18\r\n       return REPLENISH_AMOUNT;\r\n   }\r\n\r\n    \r\n}\r\n\r\n\r\n",
  "sourcePath": "/mnt/d/project/2021/intercoin/communitycontract/contracts/mocks/CommunityContractMock.sol",
  "compiler": {
    "name": "solc",
    "version": "0.6.2+commit.bacdbe57.Emscripten.clang"
  },
  "schemaVersion": "3.3.3",
  "updatedAt": "2021-03-03T23:43:36.577Z",
  "devdoc": {
    "methods": {
      "addMembers(address[])": {
        "params": {
          "members": "participant's addresses"
        }
      },
      "addRoles(address[],string[])": {
        "params": {
          "members": "participant's addresses",
          "roles": "Roles name"
        }
      },
      "createRole(string)": {
        "params": {
          "role": "role name"
        }
      },
      "getMembers(string)": {
        "params": {
          "role": "role name"
        },
        "returns": {
          "_0": "array of address "
        }
      },
      "getRoles(address)": {
        "params": {
          "member": "member's address"
        },
        "returns": {
          "_0": "array of roles "
        }
      },
      "init()": {
        "details": "creates three default roles and manage relations between it"
      },
      "inviteAccept(string,bytes,string,bytes)": {
        "details": "// ==P== // format is \"<some string data>:<address of communityContract>:<array of rolenames (sep=',')>:<some string data>\"         // invite:0x0A098Eda01Ce92ff4A4CCb7A4fFFb5A43EBC70DC:judges,guests,admins:GregMagarshak // ==R== // format is \"<address of R wallet>:<name of user>\" // 0x5B38Da6a701c568545dCfcB03FcB875f56beddC4:John Doe \r",
        "params": {
          "p": "invite message of admin whom generate messageHash and signed it",
          "pSig": "signature of admin whom generate invite and signed it",
          "rp": "message of recipient whom generate messageHash and signed it",
          "rpSig": "signature of recipient"
        }
      },
      "invitePrepare(bytes,bytes)": {
        "params": {
          "pSig": "signature of admin whom generate invite and signed it",
          "rpSig": "signature of recipient"
        }
      },
      "inviteView(bytes)": {
        "params": {
          "pSig": "signature of admin whom generate invite and signed it"
        },
        "returns": {
          "_0": "structure inviteSignature"
        }
      },
      "memberCount(string)": {
        "params": {
          "role": "role name"
        },
        "returns": {
          "_0": "count of members for that role"
        }
      },
      "owner()": {
        "details": "Returns the address of the current owner."
      },
      "removeMembers(address[])": {
        "params": {
          "members": "participant's addresses"
        }
      },
      "removeRoles(address[],string[])": {
        "params": {
          "members": "participant's addresses",
          "roles": "Roles name"
        }
      },
      "renounceOwnership()": {
        "details": "Leaves the contract without owner. It will not be possible to call `onlyOwner` functions anymore. Can only be called by the current owner.     * NOTE: Renouncing ownership will leave the contract without an owner, thereby removing any functionality that is only available to the owner."
      }
    }
  },
  "userdoc": {
    "methods": {
      "addMembers(address[])": {
        "notice": "Added participants to role members"
      },
      "addRoles(address[],string[])": {
        "notice": "Added new Roles for members"
      },
      "createRole(string)": {
        "notice": "creating new role. can called onlyOwner"
      },
      "donateETH()": {
        "notice": "///////////////////////////////////////////////////////////////////////////////////////////////////////////////////"
      },
      "getMembers()": {
        "notice": "if call without params then returns all members belong to `DEFAULT_MEMBERS_ROLE`"
      },
      "getMembers(string)": {
        "notice": "Returns all members belong to Role"
      },
      "getRoles()": {
        "notice": "if call without params then returns all existing roles "
      },
      "getRoles(address)": {
        "notice": "Returns all roles which member belong to"
      },
      "manageRole(string,string)": {
        "notice": "allow account with sourceRole setup targetRole to another account with default role(members)"
      },
      "memberCount()": {
        "notice": "if call without params then returns count of all members with default role"
      },
      "removeMembers(address[])": {
        "notice": "Removed participants from  role members"
      },
      "removeRoles(address[],string[])": {
        "notice": "Removed Role for member"
      },
      "transferOwnership(address)": {
        "notice": "overrode transferOwnership. new owner will get DEFAULT_OWNERS_ROLE"
      }
    }
  }
}