{
  "contractName": "CommunityContractFactory",
  "abi": [
    {
      "inputs": [],
      "stateMutability": "nonpayable",
      "type": "constructor"
    },
    {
      "anonymous": false,
      "inputs": [
        {
          "indexed": true,
          "internalType": "address",
          "name": "previousOwner",
          "type": "address"
        },
        {
          "indexed": true,
          "internalType": "address",
          "name": "newOwner",
          "type": "address"
        }
      ],
      "name": "OwnershipTransferred",
      "type": "event"
    },
    {
      "anonymous": false,
      "inputs": [
        {
          "indexed": false,
          "internalType": "contract CommunityContract",
          "name": "addr",
          "type": "address"
        }
      ],
      "name": "Produced",
      "type": "event"
    },
    {
      "inputs": [],
      "name": "owner",
      "outputs": [
        {
          "internalType": "address",
          "name": "",
          "type": "address"
        }
      ],
      "stateMutability": "view",
      "type": "function"
    },
    {
      "inputs": [],
      "name": "renounceOwnership",
      "outputs": [],
      "stateMutability": "nonpayable",
      "type": "function"
    },
    {
      "inputs": [
        {
          "internalType": "address",
          "name": "newOwner",
          "type": "address"
        }
      ],
      "name": "transferOwnership",
      "outputs": [],
      "stateMutability": "nonpayable",
      "type": "function"
    },
    {
      "inputs": [],
      "name": "init",
      "outputs": [],
      "stateMutability": "nonpayable",
      "type": "function"
    },
    {
      "inputs": [],
      "name": "produce",
      "outputs": [
        {
          "internalType": "contract CommunityContract",
          "name": "",
          "type": "address"
        }
      ],
      "stateMutability": "nonpayable",
      "type": "function"
    }
  ],
  "bytecode": "0x608060405234801561001057600080fd5b5060405161001d9061005f565b604051809103906000f080158015610039573d6000803e3d6000fd5b50609780546001600160a01b0319166001600160a01b039290921691909117905561006c565b613e63806107df83390190565b6107648061007b6000396000f3fe608060405234801561001057600080fd5b50600436106100575760003560e01c8063656b99521461005c578063715018a6146100805780638da5cb5b1461008a578063e1c7392a14610092578063f2fde38b1461009a575b600080fd5b6100646100c0565b604080516001600160a01b039092168252519081900360200190f35b6100886101d0565b005b610064610284565b610088610293565b610088600480360360208110156100b057600080fd5b50356001600160a01b031661033d565b60975460009081906100da906001600160a01b0316610448565b9050806001600160a01b031663e1c7392a6040518163ffffffff1660e01b8152600401600060405180830381600087803b15801561011757600080fd5b505af115801561012b573d6000803e3d6000fd5b50506040805163f2fde38b60e01b815233600482015290516001600160a01b038516935063f2fde38b9250602480830192600092919082900301818387803b15801561017657600080fd5b505af115801561018a573d6000803e3d6000fd5b5050604080516001600160a01b038516815290517f33aa749fb896460032cecf98ef36627f041bbaaf768a0989a8cfe7b3354bc1309350908190036020019150a1905090565b6101d861049a565b6065546001600160a01b0390811691161461023a576040805162461bcd60e51b815260206004820181905260248201527f4f776e61626c653a2063616c6c6572206973206e6f7420746865206f776e6572604482015290519081900360640190fd5b6065546040516000916001600160a01b0316907f8be0079c531659141344cd1fd0a4f28419497f9722a3daafe3b4186f6b6457e0908390a3606580546001600160a01b0319169055565b6065546001600160a01b031690565b600054610100900460ff16806102ac57506102ac61049e565b806102ba575060005460ff16155b6102f55760405162461bcd60e51b815260040180806020018281038252602e815260200180610701602e913960400191505060405180910390fd5b600054610100900460ff16158015610320576000805460ff1961ff0019909116610100171660011790555b6103286104a4565b801561033a576000805461ff00191690555b50565b61034561049a565b6065546001600160a01b039081169116146103a7576040805162461bcd60e51b815260206004820181905260248201527f4f776e61626c653a2063616c6c6572206973206e6f7420746865206f776e6572604482015290519081900360640190fd5b6001600160a01b0381166103ec5760405162461bcd60e51b81526004018080602001828103825260268152602001806106db6026913960400191505060405180910390fd5b6065546040516001600160a01b038084169216907f8be0079c531659141344cd1fd0a4f28419497f9722a3daafe3b4186f6b6457e090600090a3606580546001600160a01b0319166001600160a01b0392909216919091179055565b6000808260601b9050604051733d602d80600a3d3981f3363d3d373d3d3d363d7360601b81528160148201526e5af43d82803e903d91602b57fd5bf360881b60288201526037816000f0949350505050565b3390565b303b1590565b600054610100900460ff16806104bd57506104bd61049e565b806104cb575060005460ff16155b6105065760405162461bcd60e51b815260040180806020018281038252602e815260200180610701602e913960400191505060405180910390fd5b600054610100900460ff16158015610531576000805460ff1961ff0019909116610100171660011790555b610539610541565b6103286105e1565b600054610100900460ff168061055a575061055a61049e565b80610568575060005460ff16155b6105a35760405162461bcd60e51b815260040180806020018281038252602e815260200180610701602e913960400191505060405180910390fd5b600054610100900460ff16158015610328576000805460ff1961ff001990911661010017166001179055801561033a576000805461ff001916905550565b600054610100900460ff16806105fa57506105fa61049e565b80610608575060005460ff16155b6106435760405162461bcd60e51b815260040180806020018281038252602e815260200180610701602e913960400191505060405180910390fd5b600054610100900460ff1615801561066e576000805460ff1961ff0019909116610100171660011790555b600061067861049a565b606580546001600160a01b0319166001600160a01b038316908117909155604051919250906000907f8be0079c531659141344cd1fd0a4f28419497f9722a3daafe3b4186f6b6457e0908290a350801561033a576000805461ff00191690555056fe4f776e61626c653a206e6577206f776e657220697320746865207a65726f2061646472657373436f6e747261637420696e7374616e63652068617320616c7265616479206265656e20696e697469616c697a6564a26469706673582212209a2056f75d65d31a66d72b3dcdb1b0979a6c7f575dc3315c584c10295241000f64736f6c63430006020033608060405234801561001057600080fd5b50613e43806100206000396000f3fe6080604052600436106101b75760003560e01c80638da5cb5b116100ec578063cf8494421161008a578063e1c7392a11610064578063e1c7392a1461046c578063f2fde38b14610481578063fb92da6c146104a1578063ff15f538146104c1576101b7565b8063cf84944214610291578063d6388ad114610437578063d653f90d14610457576101b7565b8063af17d38a116100c6578063af17d38a146103cd578063b01a70c6146103ed578063b2605b7c14610402578063ce6ccfaf14610417576101b7565b80638da5cb5b146103765780639d15076b146103985780639eab5253146103b8576101b7565b8063562505711161015957806371061398116101335780637106139814610313578063715018a61461033557806385b4bb531461034a5780638b4c40b01461036e576101b7565b806356250571146102a657806356366abb146102d35780636f4d469b146102f3576101b7565b80633c80d14f116101955780633c80d14f1461022457806346ee84b0146102445780634d4c9d7c1461026457806355f8137114610291576101b7565b806311aee380146101b957806312e1c745146101e457806317503a7714610204575b005b3480156101c557600080fd5b506101ce6104d6565b6040516101db9190613852565b60405180910390f35b3480156101f057600080fd5b506101b76101ff36600461325d565b6104f4565b34801561021057600080fd5b506101b761021f366004613340565b61062a565b34801561023057600080fd5b506101ce61023f36600461330d565b610870565b34801561025057600080fd5b506101b761025f36600461322a565b61089d565b34801561027057600080fd5b5061028461027f36600461330d565b61094a565b6040516101db9190613d1c565b34801561029d57600080fd5b506101ce610b05565b3480156102b257600080fd5b506102c66102c136600461330d565b610b10565b6040516101db91906137a5565b3480156102df57600080fd5b506101b76102ee366004613449565b610bc7565b3480156102ff57600080fd5b506101b761030e36600461322a565b610c57565b34801561031f57600080fd5b50610328610d04565b6040516101db91906137f2565b34801561034157600080fd5b506101b7610d8a565b34801561035657600080fd5b5061035f610e09565b6040516101db93929190613913565b6101b7611082565b34801561038257600080fd5b5061038b611084565b6040516101db9190613791565b3480156103a457600080fd5b506101b76103b33660046133a1565b611093565b3480156103c457600080fd5b506102c6611738565b3480156103d957600080fd5b506101b76103e836600461330d565b611750565b3480156103f957600080fd5b506101ce611864565b34801561040e57600080fd5b506101ce611871565b34801561042357600080fd5b5061032861043236600461320f565b61187f565b34801561044357600080fd5b506101b7610452366004613340565b611954565b34801561046357600080fd5b506101ce6119cc565b34801561047857600080fd5b506101b76119d9565b34801561048d57600080fd5b506101b761049c36600461320f565b611b56565b3480156104ad57600080fd5b506101b76104bc36600461325d565b611be5565b3480156104cd57600080fd5b506101ce611cc7565b60006104ee61023f666d656d6265727360c81b611cd2565b90505b90565b815181516000805b838210156106225761052e86838151811061051357fe5b6020026020010151666d656d6265727360c81b60001b611dc8565b61058457610545666d656d6265727360c81b611cd2565b60405160200161055591906136ac565b60408051601f198184030181529082905262461bcd60e51b825261057b91600401613879565b60405180910390fd5b5060005b82811015610617576105bc61059b611e05565b6105b78784815181106105aa57fe5b6020026020010151611e09565b611e27565b6105e4578481815181106105cc57fe5b60200260200101516040516020016105559190613736565b61060f8683815181106105f357fe5b602002602001015161060a8784815181106105aa57fe5b611f20565b600101610588565b6001909101906104fc565b505050505050565b610632611e05565b630eecac4f60e31b6106448282611dc8565b61064d82611cd2565b60405160200161065d91906136ac565b6040516020818303038152906040529061068a5760405162461bcd60e51b815260040161057b9190613879565b508360005a905060cf866040516106a191906135cc565b9081526040519081900360200190206003015460ff6201000090910416156106db5760405162461bcd60e51b815260040161057b90613c12565b8560cf876040516106ec91906135cc565b9081526020016040518091039020600001908051906020019061071092919061300c565b508460cf8760405161072291906135cc565b9081526020016040518091039020600101908051906020019061074692919061300c565b50600060cf8760405161075991906135cc565b908152604051908190036020019020600301805460ff1916600183600281111561077f57fe5b0217905550600060cf8760405161079691906135cc565b908152602001604051809103902060030160016101000a81548160ff021916908315150217905550600160cf876040516107d091906135cc565b9081526040519081900360200190206003018054911515620100000262ff00001990921691909117905560005a60405190915061753082840301903a82029061084290829060cf906108239089906135cc565b908152604051908190036020019020600201549063ffffffff611fc116565b60cf8660405161085291906135cc565b90815260405190819003602001902060020155505050505050505050565b600061089560cd600061088285611e09565b8152602001908152602001600020611fe6565b90505b919050565b6108a5611e05565b666d656d6265727360c81b60006108bc8383611e27565b90506001811515146108cd83611cd2565b6040516020016108dd9190613736565b6040516020818303038152906040529061090a5760405162461bcd60e51b815260040161057b9190613879565b50835160005b818110156106225761094286828151811061092757fe5b6020026020010151666d656d6265727360c81b60001b611ff1565b600101610910565b61095261308a565b60cf8260405161096291906135cc565b9081526040805160209281900383018120805460026001821615610100026000190190911604601f8101859004909402820160e090810190935260c082018481529193909284929184918401828280156109fd5780601f106109d2576101008083540402835291602001916109fd565b820191906000526020600020905b8154815290600101906020018083116109e057829003601f168201915b50505050508152602001600182018054600181600116156101000203166002900480601f016020809104026020016040519081016040528092919081815260200182805460018160011615610100020316600290048015610a9f5780601f10610a7457610100808354040283529160200191610a9f565b820191906000526020600020905b815481529060010190602001808311610a8257829003601f168201915b50505091835250506002828101546020830152600383015460409092019160ff1690811115610aca57fe5b6002811115610ad557fe5b81526003919091015460ff6101008204811615156020840152620100009091041615156040909101529050919050565b66038d7ea4c6800081565b60606000610b1d83611e09565b600081815260cd6020526040812091925090610b3890611fe6565b9050606081604051908082528060200260200182016040528015610b66578160200160208202803883390190505b50905060005b82811015610bbe57600084815260cd60205260409020610b92908263ffffffff61209216565b828281518110610b9e57fe5b6001600160a01b0390921660209283029190910190910152600101610b6c565b50949350505050565b610bcf611e05565b6065546001600160a01b03908116911614610bfc5760405162461bcd60e51b815260040161057b90613b8f565b8251610c0f9060d090602086019061300c565b5081518051610c269160d19160209091019061300c565b506020808301518051610c3d9260d292019061300c565b508051610c519060d390602084019061300c565b50505050565b610c5f611e05565b666d656d6265727360c81b6000610c768383611e27565b9050600181151514610c8783611cd2565b604051602001610c979190613736565b60405160208183030381529060405290610cc45760405162461bcd60e51b815260040161057b9190613879565b50835160005b8181101561062257610cfc868281518110610ce157fe5b6020026020010151666d656d6265727360c81b60001b611f20565b600101610cca565b60608060c954604051908082528060200260200182016040528015610d3d57816020015b6060815260200190600190039081610d285790505b50905060005b60c954811015610d8457600081815260cb6020526040902054610d6590611cd2565b828281518110610d7157fe5b6020908102919091010152600101610d43565b50905090565b610d92611e05565b6065546001600160a01b03908116911614610dbf5760405162461bcd60e51b815260040161057b90613b8f565b6065546040516000916001600160a01b0316907f8be0079c531659141344cd1fd0a4f28419497f9722a3daafe3b4186f6b6457e0908390a3606580546001600160a01b0319169055565b6060610e136130cb565b60d08054604080516020601f600260001961010060018816150201909516949094049384018190048102820181019092528281526060939260d19260d392918591830182828015610ea55780601f10610e7a57610100808354040283529160200191610ea5565b820191906000526020600020905b815481529060010190602001808311610e8857829003601f168201915b505060408051875460606020601f6002600019610100600187161502019094169390930492830181900402830181018452928201818152969950909588955086945092508491840182828015610f3c5780601f10610f1157610100808354040283529160200191610f3c565b820191906000526020600020905b815481529060010190602001808311610f1f57829003601f168201915b50505050508152602001600182018054600181600116156101000203166002900480601f016020809104026020016040519081016040528092919081815260200182805460018160011615610100020316600290048015610fde5780601f10610fb357610100808354040283529160200191610fde565b820191906000526020600020905b815481529060010190602001808311610fc157829003601f168201915b5050509190925250508254604080516020601f600260001961010060018816150201909516949094049384018190048102820181019092528281529395508492508301828280156110705780601f1061104557610100808354040283529160200191611070565b820191906000526020600020905b81548152906001019060200180831161105357829003601f168201915b50505050509050925092509250909192565b565b6065546001600160a01b031690565b61109b611e05565b630eecac4f60e31b6110ad8282611dc8565b6110b682611cd2565b6040516020016110c691906136ac565b604051602081830303815290604052906110f35760405162461bcd60e51b815260040161057b9190613879565b508460005a60975490915060ff1661111d5760405162461bcd60e51b815260040161057b90613ce5565b6097805460ff1916905560405160cf906111389089906135cc565b9081526040519081900360200190206003015460ff61010090910416156111715760405162461bcd60e51b815260040161057b906139e9565b6000806111808a8a8a8a61209e565b9150915060606111b2604051806040016040528060018152602001601d60f91b8152508c6120f290919063ffffffff16565b905060606111f6604051806040016040528060018152602001600b60fa1b815250836002815181106111e057fe5b60200260200101516120f290919063ffffffff16565b90506060611226604051806040016040528060018152602001601d60f91b8152508c6120f290919063ffffffff16565b90506001600160a01b038516158061124557506001600160a01b038416155b806112bc57508960405160200161125c9190613879565b6040516020818303038152906040528051906020012060cf8d60405161128291906135cc565b90815260200160405180910390206001016040516020016112a3919061388c565b6040516020818303038152906040528051906020012014155b806112f55750836001600160a01b03166112e9826000815181106112dc57fe5b60200260200101516121b2565b6001600160a01b031614155b806113215750306001600160a01b0316611315846001815181106112dc57fe5b6001600160a01b031614155b1561133e5760405162461bcd60e51b815260040161057b90613c7e565b600061135486666d656d6265727360c81b611e27565b156114345761136d85666d656d6265727360c81b611f20565b60005b835181101561142e5761138c876105b78684815181106105aa57fe5b156113ad57600191506113a88661060a8684815181106105aa57fe5b611426565b6113b5611e05565b6001600160a01b03167fd79dde06f6a105266dd551d05cb7ded4ae453379f80a5a23b14253ad72434edc8583815181106113eb57fe5b60200260200101516040516020016114039190613707565b60408051601f198184030181529082905261141d91613879565b60405180910390a25b600101611370565b506114ac565b61143c611e05565b6001600160a01b03167fd79dde06f6a105266dd551d05cb7ded4ae453379f80a5a23b14253ad72434edc611479666d656d6265727360c81b611cd2565b6040516020016114899190613707565b60408051601f19818403018152908290526114a391613879565b60405180910390a25b6001811515141561150757600160cf8e6040516114c991906135cc565b90815260405190819003602001902060030180549115156101000261ff00199092169190911790556114f961234d565b6115028561239d565b61151f565b60405162461bcd60e51b815260040161057b90613cae565b50506097805460ff19166001179055506000925082915061153d9050565b60cf8460405161154d91906135cc565b9081526040519081900360200190206003015460ff16600281111561156e57fe5b14156115c95760005a60405181850362013178013a8102945091925061159e90849060cf906108239089906135cc565b60cf866040516115ae91906135cc565b90815260405190819003602001902060020155506115c99050565b60cf836040516115d991906135cc565b90815260200160405180910390206002015490504781111580156116675750600060cf8460405161160a91906135cc565b9081526040519081900360200190206003015460ff16600281111561162b57fe5b14806116675750600160cf8460405161164491906135cc565b9081526040519081900360200190206003015460ff16600281111561166557fe5b145b156116ef57600260cf8460405161167e91906135cc565b908152604051908190036020019020600301805460ff191660018360028111156116a457fe5b02179055506116b1611e05565b6001600160a01b03166108fc829081150290604051600060405180830381858888f193505050501580156116e9573d6000803e3d6000fd5b5061172d565b600160cf8460405161170191906135cc565b908152604051908190036020019020600301805460ff1916600183600281111561172757fe5b02179055505b505050505050505050565b60606104ee6102c1666d656d6265727360c81b611cd2565b611758611e05565b6065546001600160a01b039081169116146117855760405162461bcd60e51b815260040161057b90613b8f565b60ca600061179283611e09565b8152602001908152602001600020546000146117c05760405162461bcd60e51b815260040161057b90613ad4565b60ca60006117d56117d0846123e3565b611e09565b8152602001908152602001600020546000146118035760405162461bcd60e51b815260040161057b90613ad4565b61181461180f82611e09565b6124ee565b61183061182082611e09565b666d656d6265727360c81b612567565b61184b656f776e65727360d01b61184683611e09565b612567565b6118616561646d696e7360d01b61184683611e09565b50565b656f776e65727360d01b81565b666d656d6265727360c81b81565b6001600160a01b038116600090815260cc60205260408120606091906118a490611fe6565b90506060816040519080825280602002602001820160405280156118dc57816020015b60608152602001906001900390816118c75790505b50905060005b8281101561194c576001600160a01b038516600090815260cc6020526040812061192d9160cb91611919908563ffffffff61209216565b815260200190815260200160002054611cd2565b82828151811061193957fe5b60209081029190910101526001016118e2565b509392505050565b61195c611e05565b6065546001600160a01b039081169116146119895760405162461bcd60e51b815260040161057b90613b8f565b656f776e65727360d01b61199c82611e09565b14156119b357806040516020016105559190613741565b6119c86119bf83611e09565b61184683611e09565b5050565b6561646d696e7360d01b81565b600054610100900460ff16806119f257506119f2612633565b80611a00575060005460ff16155b611a1c5760405162461bcd60e51b815260040161057b90613bc4565b600054610100900460ff16158015611a47576000805460ff1961ff0019909116610100171660011790555b611a4f612639565b611a576126b7565b600160c955611a6e656f776e65727360d01b6124ee565b611a806561646d696e7360d01b6124ee565b611a93666d656d6265727360c81b6124ee565b611aa3630eecac4f60e31b6124ee565b611abd611aae611e05565b656f776e65727360d01b611f20565b611ad7611ac8611e05565b6561646d696e7360d01b611f20565b611aef611ae2611e05565b630eecac4f60e31b611f20565b611b0b656f776e65727360d01b6561646d696e7360d01b612567565b611b286561646d696e7360d01b666d656d6265727360c81b612567565b611b426561646d696e7360d01b630eecac4f60e31b612567565b8015611861576000805461ff001916905550565b611b5e611e05565b6065546001600160a01b03908116911614611b8b5760405162461bcd60e51b815260040161057b90613b8f565b611b948161272d565b611bae611b9f611084565b656f776e65727360d01b611ff1565b611bc181656f776e65727360d01b611f20565b611bd4816561646d696e7360d01b611f20565b61186181630eecac4f60e31b611f20565b815181516000805b8382101561062257611c0486838151811061051357fe5b611c1b57610545666d656d6265727360c81b611cd2565b5060005b82811015611cbc57666d656d6265727360c81b60001b611c448683815181106105aa57fe5b1415611c6e57848181518110611c5657fe5b60200260200101516040516020016105559190613616565b611c7961059b611e05565b611c89578481815181106105cc57fe5b611cb4868381518110611c9857fe5b6020026020010151611caf8784815181106105aa57fe5b611ff1565b600101611c1f565b600190910190611bed565b630eecac4f60e31b81565b606060005b60208160ff16108015611d055750828160ff1660208110611cf457fe5b1a60f81b6001600160f81b03191615155b15611d1257600101611cd7565b60608160ff166040519080825280601f01601f191660200182016040528015611d42576020820181803883390190505b509050600091505b60208260ff16108015611d785750838260ff1660208110611d6757fe5b1a60f81b6001600160f81b03191615155b15611dc157838260ff1660208110611d8c57fe5b1a60f81b818360ff1681518110611d9f57fe5b60200101906001600160f81b031916908160001a905350600190910190611d4a565b9392505050565b600081815260ca60209081526040808320546001600160a01b038616845260cc9092528220611dfc9163ffffffff6127e416565b90505b92915050565b3390565b80516000908290611e1e575060009050610898565b50506020015190565b600081815260ca60205260408120548190801515611e4485611cd2565b604051602001611e54919061365e565b60405160208183030381529060405290611e815760405162461bcd60e51b815260040161057b9190613879565b5060005b6001600160a01b038616600090815260cc60205260409020611ea690611fe6565b811015611f16576001600160a01b038616600090815260cc60205260408120611efb91849160ce9190611edf908663ffffffff61209216565b81526020019081526020016000206127e490919063ffffffff16565b151560011415611f0e5760019250611f16565b600101611e85565b5090949350505050565b600081815260ca60209081526040808320546001600160a01b038616845260cc909252909120611f559163ffffffff6127f016565b50600081815260cd60205260409020611f74908363ffffffff6127fc16565b50611f7d611e05565b6001600160a01b0316826001600160a01b0316827f2f8788117e7eff1d82e926ec794901d17c78024a50270940304540a733656f0d60405160405180910390a45050565b600082820183811015611dfc5760405162461bcd60e51b815260040161057b90613a9d565b600061089582612811565b600081815260ca60209081526040808320546001600160a01b038616845260cc9092529091206120269163ffffffff61281516565b50600081815260cd60205260409020612045908363ffffffff61282116565b5061204e611e05565b6001600160a01b0316826001600160a01b0316827ff6391f5c32d9c69d2a47ea670b442974b53935d1edc7fd64eb21e047a839171b60405160405180910390a45050565b6000611dfc8383612836565b60008060006120ac8761287b565b905060006120b98661287b565b905060006120cd838963ffffffff61296b16565b905060006120e1838863ffffffff61296b16565b919a91995090975050505050505050565b60606120fc6130e5565b61210584612a99565b905061210f6130e5565b61211884612a99565b9050606061212c838363ffffffff612abe16565b60010160405190808252806020026020018201604052801561216257816020015b606081526020019060019003908161214d5790505b50905060005b81518110156121a857612189612184858563ffffffff612b2b16565b612b3e565b82828151811061219557fe5b6020908102919091010152600101612168565b5095945050505050565b60008181808060025b602a81101561234257610100840293508481815181106121d757fe5b0160200151855160f89190911c93508590600183019081106121f557fe5b016020015160f81c915060616001600160a01b0384161080159061222357506066836001600160a01b031611155b1561223357605783039250612297565b6041836001600160a01b03161015801561225757506046836001600160a01b031611155b1561226757603783039250612297565b6030836001600160a01b03161015801561228b57506039836001600160a01b031611155b15612297576030830392505b6061826001600160a01b0316101580156122bb57506066826001600160a01b031611155b156122cb5760578203915061232f565b6041826001600160a01b0316101580156122ef57506046826001600160a01b031611155b156122ff5760378203915061232f565b6030826001600160a01b03161015801561232357506039826001600160a01b031611155b1561232f576030820391505b60108302820193909301926002016121bb565b509195945050505050565b4766038d7ea4c680001161108257612363611e05565b6040516001600160a01b03919091169060009066038d7ea4c680009082818181858883f19350505050158015611861573d6000803e3d6000fd5b4766038d7ea4c6800011611861576040516001600160a01b0382169060009066038d7ea4c680009082818181858883f193505050501580156119c8573d6000803e3d6000fd5b606080829050606081516040519080825280601f01601f191660200182016040528015612417576020820181803883390190505b50905060005b825181101561194c57604183828151811061243457fe5b016020015160f81c1080159061245e5750605a83828151811061245357fe5b016020015160f81c11155b156124ab5782818151811061246f57fe5b602001015160f81c60f81b60f81c60200160f81b82828151811061248f57fe5b60200101906001600160f81b031916908160001a9053506124e6565b8281815181106124b757fe5b602001015160f81c60f81b8282815181106124ce57fe5b60200101906001600160f81b031916908160001a9053505b60010161241d565b60c98054600083815260ca6020908152604080832084905592825260cb9052208290555461252390600163ffffffff611fc116565b60c95561252e611e05565b6001600160a01b0316817f23a0bd0aafa2b64f6ce58fb7b33197d048845a3add78dc637ce175ce8851b47960405160405180910390a350565b600082815260ca60205260409020546125925760405162461bcd60e51b815260040161057b90613c47565b600081815260ca60205260409020546125bd5760405162461bcd60e51b815260040161057b90613c47565b600081815260ca602090815260408083205485845281842054845260ce9092529091206125ef9163ffffffff6127f016565b506125f8611e05565b6001600160a01b031681837fde36c55b359925537746aca77799227e892f3c3b7ba7001e85cac71d3190378660405160405180910390a45050565b303b1590565b600054610100900460ff16806126525750612652612633565b80612660575060005460ff16155b61267c5760405162461bcd60e51b815260040161057b90613bc4565b600054610100900460ff161580156126a7576000805460ff1961ff0019909116610100171660011790555b6126af612b8e565b611b42612c0f565b600054610100900460ff16806126d057506126d0612633565b806126de575060005460ff16155b6126fa5760405162461bcd60e51b815260040161057b90613bc4565b600054610100900460ff16158015612725576000805460ff1961ff0019909116610100171660011790555b611b42612ce9565b612735611e05565b6065546001600160a01b039081169116146127625760405162461bcd60e51b815260040161057b90613b8f565b6001600160a01b0381166127885760405162461bcd60e51b815260040161057b90613a57565b6065546040516001600160a01b038084169216907f8be0079c531659141344cd1fd0a4f28419497f9722a3daafe3b4186f6b6457e090600090a3606580546001600160a01b0319166001600160a01b0392909216919091179055565b6000611dfc8383612d78565b6000611dfc8383612d90565b6000611dfc836001600160a01b038416612d90565b5490565b6000611dfc8383612dda565b6000611dfc836001600160a01b038416612dda565b815460009082106128595760405162461bcd60e51b815260040161057b906139a7565b82600001828154811061286857fe5b9060005260206000200154905092915050565b6040805180820190915260208082527f19457468657265756d205369676e6564204d6573736167653a0a303030303030908201528151600091906039820190620f423f8111156128ca57600080fd5b6000620186a05b801561291e5760008184816128e257fe5b049050806128f957826128f95750600a90046128d1565b80820290930392600190920191600a82600190960195049150603001808553506128d1565b8161292c57601b9150612933565b601a820191505b81855284876040516020016129499291906135e8565b6040516020818303038152906040528051906020012095505050505050919050565b6000815160411461298e5760405162461bcd60e51b815260040161057b90613a20565b60208201516040830151606084015160001a7f7fffffffffffffffffffffffffffffff5d576e7357a4501ddfe92f46681b20a08211156129e05760405162461bcd60e51b815260040161057b90613b0b565b8060ff16601b141580156129f857508060ff16601c14155b15612a155760405162461bcd60e51b815260040161057b90613b4d565b600060018783868660405160008152602001604052604051612a3a949392919061385b565b6020604051602081039080840390855afa158015612a5c573d6000803e3d6000fd5b5050604051601f1901519150506001600160a01b038116612a8f5760405162461bcd60e51b815260040161057b90613970565b9695505050505050565b612aa16130e5565b506040805180820190915281518152602082810190820152919050565b6000808260000151612ae28560000151866020015186600001518760200151612ea0565b0190505b83516020850151018111612b24578251602080860151865191860151600190950194612b1c929185039091039084908490612ea0565b019050612ae6565b5092915050565b612b336130e5565b612b24838383612f5d565b60608082600001516040519080825280601f01601f191660200182016040528015612b70576020820181803883390190505b5090506000602082019050612b248185602001518660000151612fce565b600054610100900460ff1680612ba75750612ba7612633565b80612bb5575060005460ff16155b612bd15760405162461bcd60e51b815260040161057b90613bc4565b600054610100900460ff16158015611b42576000805460ff1961ff0019909116610100171660011790558015611861576000805461ff001916905550565b600054610100900460ff1680612c285750612c28612633565b80612c36575060005460ff16155b612c525760405162461bcd60e51b815260040161057b90613bc4565b600054610100900460ff16158015612c7d576000805460ff1961ff0019909116610100171660011790555b6000612c87611e05565b606580546001600160a01b0319166001600160a01b038316908117909155604051919250906000907f8be0079c531659141344cd1fd0a4f28419497f9722a3daafe3b4186f6b6457e0908290a3508015611861576000805461ff001916905550565b600054610100900460ff1680612d025750612d02612633565b80612d10575060005460ff16155b612d2c5760405162461bcd60e51b815260040161057b90613bc4565b600054610100900460ff16158015612d57576000805460ff1961ff0019909116610100171660011790555b6097805460ff191660011790558015611861576000805461ff001916905550565b60009081526001919091016020526040902054151590565b6000612d9c8383612d78565b612dd257508154600181810184556000848152602080822090930184905584548482528286019093526040902091909155611dff565b506000611dff565b60008181526001830160205260408120548015612e965783546000198083019190810190600090879083908110612e0d57fe5b9060005260206000200154905080876000018481548110612e2a57fe5b600091825260208083209091019290925582815260018981019092526040902090840190558654879080612e5a57fe5b60019003818190600052602060002001600090559055866001016000878152602001908152602001600020600090556001945050505050611dff565b6000915050611dff565b60008381868511612f4e5760208511612f135783518251600019600860208990030260020a011991821690888a018890039083165b828114612f0557818610612ef3578a8a019650505050505050612f55565b50600190940180519094908316612ed5565b859650505050505050612f55565b508383206000905b8588038211612f4c5785832081811415612f3b5783945050505050612f55565b506001928301929190910190612f1b565b505b5050508284015b949350505050565b612f656130e5565b6000612f838560000151866020015186600001518760200151612ea0565b60208087018051918601919091528051820385528651905191925001811415612faf5760008552612fc5565b8351835186519101900385528351810160208601525b50909392505050565b5b60208110612fee578151835260209283019290910190601f1901612fcf565b905182516020929092036101000a6000190180199091169116179052565b828054600181600116156101000203166002900490600052602060002090601f016020900481019282601f1061304d57805160ff191683800117855561307a565b8280016001018555821561307a579182015b8281111561307a57825182559160200191906001019061305f565b506130869291506130ff565b5090565b6040518060c00160405280606081526020016060815260200160008152602001600060028111156130b757fe5b815260006020820181905260409091015290565b604051806040016040528060608152602001606081525090565b604051806040016040528060008152602001600081525090565b6104f191905b808211156130865760008155600101613105565b80356001600160a01b0381168114611dff57600080fd5b600082601f830112613140578081fd5b813561315361314e82613dc1565b613d9a565b81815291506020808301908481018184028601820187101561317457600080fd5b60005b8481101561319b576131898883613119565b84529282019290820190600101613177565b505050505092915050565b600082601f8301126131b6578081fd5b813567ffffffffffffffff8111156131cc578182fd5b6131df601f8201601f1916602001613d9a565b91508082528360208285010111156131f657600080fd5b8060208401602084013760009082016020015292915050565b600060208284031215613220578081fd5b611dfc8383613119565b60006020828403121561323b578081fd5b813567ffffffffffffffff811115613251578182fd5b612f5584828501613130565b6000806040838503121561326f578081fd5b823567ffffffffffffffff80821115613286578283fd5b61329286838701613130565b93506020915081850135818111156132a8578384fd5b85019050601f810186136132ba578283fd5b80356132c861314e82613dc1565b81815283810190838501865b848110156132fd576132eb8b8884358901016131a6565b845292860192908601906001016132d4565b5096999098509650505050505050565b60006020828403121561331e578081fd5b813567ffffffffffffffff811115613334578182fd5b612f55848285016131a6565b60008060408385031215613352578182fd5b823567ffffffffffffffff80821115613369578384fd5b613375868387016131a6565b9350602085013591508082111561338a578283fd5b50613397858286016131a6565b9150509250929050565b600080600080608085870312156133b6578182fd5b843567ffffffffffffffff808211156133cd578384fd5b6133d9888389016131a6565b955060208701359150808211156133ee578384fd5b6133fa888389016131a6565b9450604087013591508082111561340f578384fd5b61341b888389016131a6565b93506060870135915080821115613430578283fd5b5061343d878288016131a6565b91505092959194509250565b60008060006060848603121561345d578283fd5b833567ffffffffffffffff80821115613474578485fd5b613480878388016131a6565b94506020860135915080821115613495578384fd5b818601604081890312156134a7578485fd5b6134b16040613d9a565b92508035828111156134c1578586fd5b6134cd898284016131a6565b8452506020810135828111156134e1578586fd5b6134ed898284016131a6565b6020850152509193506040860135915080821115613509578283fd5b50613516868287016131a6565b9150509250925092565b60008151808452613538816020860160208601613de1565b601f01601f19169290920160200192915050565b7f696e766974696e67207573657220646964206e6f742068617665207065726d698152727373696f6e20746f2061646420726f6c65202760681b602082015260330190565b7f53656e6465722063616e206e6f74206d616e616765204d656d62657273207769815268746820726f6c65202760b81b602082015260290190565b600082516135de818460208701613de1565b9190910192915050565b600083516135fa818460208801613de1565b835190830161360d828260208801613de1565b01949350505050565b60007443616e206e6f742072656d6f766520726f6c65202760581b82528251613646816015850160208701613de1565b602760f81b6015939091019283015250601601919050565b60006a5375636820726f6c65202760a81b8252825161368481600b850160208701613de1565b702720646f6573206e6f742065786973747360781b600b939091019283015250601c01919050565b60007f546172676574206163636f756e74206d757374206265207769746820726f6c65825261202760f01b602083015282516136ef816022850160208701613de1565b602760f81b6022939091019283015250602301919050565b60006137128261354c565b8351613722818360208801613de1565b602760f81b91019081526001019392505050565b600061371282613591565b60007f746172676574526f6c6520d181616e206e6f742062652027000000000000000082528251613779816018850160208701613de1565b602760f81b6018939091019283015250601901919050565b6001600160a01b0391909116815260200190565b6020808252825182820181905260009190848201906040850190845b818110156137e65783516001600160a01b0316835292840192918401916001016137c1565b50909695505050505050565b6000602080830181845280855180835260408601915060408482028701019250838701855b8281101561384557603f19888603018452613833858351613520565b94509285019290850190600101613817565b5092979650505050505050565b90815260200190565b93845260ff9290921660208401526040830152606082015260800190565b600060208252611dfc6020830184613520565b600060208083018184528285546001808216600081146138b357600181146138d157613906565b60028304607f16855260ff1983166040890152606088019350613906565b60028304808652898852868820885b828110156138fc5781548b8201604001529084019088016138e0565b8a01604001955050505b5091979650505050505050565b6000606082526139266060830186613520565b82810360208401528451604082526139416040830182613520565b60208701519150828103602084015261395a8183613520565b925050508281036040840152612a8f8185613520565b60208082526018908201527f45434453413a20696e76616c6964207369676e61747572650000000000000000604082015260600190565b60208082526022908201527f456e756d657261626c655365743a20696e646578206f7574206f6620626f756e604082015261647360f01b606082015260800190565b6020808252601e908201527f53756368207369676e617475726520697320616c726561647920757365640000604082015260600190565b6020808252601f908201527f45434453413a20696e76616c6964207369676e6174757265206c656e67746800604082015260600190565b60208082526026908201527f4f776e61626c653a206e6577206f776e657220697320746865207a65726f206160408201526564647265737360d01b606082015260800190565b6020808252601b908201527f536166654d6174683a206164646974696f6e206f766572666c6f770000000000604082015260600190565b6020808252601b908201527f5375636820726f6c6520697320616c7265616479206578697374730000000000604082015260600190565b60208082526022908201527f45434453413a20696e76616c6964207369676e6174757265202773272076616c604082015261756560f01b606082015260800190565b60208082526022908201527f45434453413a20696e76616c6964207369676e6174757265202776272076616c604082015261756560f01b606082015260800190565b6020808252818101527f4f776e61626c653a2063616c6c6572206973206e6f7420746865206f776e6572604082015260600190565b6020808252602e908201527f436f6e747261637420696e7374616e63652068617320616c726561647920626560408201526d195b881a5b9a5d1a585b1a5e995960921b606082015260800190565b6020808252818101527f53756368207369676e617475726520697320616c726561647920657869737473604082015260600190565b6020808252601b908201527f536f7572636520726f6c6520646f6573206e6f74206578697374730000000000604082015260600190565b6020808252601690820152750a6d2cedcc2e8eae4ca40c2e4ca40dad2e6dac2e8c6d60531b604082015260600190565b60208082526017908201527f43616e206e6f7420616464206e6f206f6e6520726f6c65000000000000000000604082015260600190565b6020808252601f908201527f5265656e7472616e637947756172643a207265656e7472616e742063616c6c00604082015260600190565b600060208252825160c06020840152613d3860e0840182613520565b6020850151848203601f190160408601529150613d558183613520565b604086015160608601526060860151925060038310613d7057fe5b8260808601526080860151151560a086015260a0860151151560c086015280935050505092915050565b60405181810167ffffffffffffffff81118282101715613db957600080fd5b604052919050565b600067ffffffffffffffff821115613dd7578081fd5b5060209081020190565b60005b83811015613dfc578181015183820152602001613de4565b83811115610c51575050600091015256fea2646970667358221220e5fe09f766cc7f686d65e85e3e0ac2db0775eabc2fad1d21ef9ad785882d7b3e64736f6c63430006020033",
  "source": "pragma solidity >=0.6.0 <0.7.0;\r\n\r\nimport \"@openzeppelin/contracts-ethereum-package/contracts/access/Ownable.sol\";\r\nimport \"../CommunityContract.sol\";\r\n\r\ncontract CommunityContractFactory is OwnableUpgradeSafe {\r\n\r\n    CommunityContract private implementationContract;\r\n    event Produced(CommunityContract addr);\r\n    \r\n    constructor () public {\r\n        implementationContract = new CommunityContract();\r\n    }\r\n    \r\n    function init() public initializer {\r\n        __Ownable_init();\r\n    }\r\n    \r\n   function produce() public returns (CommunityContract){\r\n        \r\n        CommunityContract proxy = CommunityContract(\r\n            payable(createClone(address(implementationContract)))\r\n        );\r\n        \r\n        proxy.init();\r\n        proxy.transferOwnership(msg.sender);\r\n        emit Produced(proxy);\r\n        return proxy;\r\n    }\r\n\r\n    function createClone(address target) internal returns (address result) {\r\n        bytes20 targetBytes = bytes20(target);\r\n        assembly {\r\n            let clone := mload(0x40)\r\n            mstore(clone, 0x3d602d80600a3d3981f3363d3d373d3d3d363d73000000000000000000000000)\r\n            mstore(add(clone, 0x14), targetBytes)\r\n            mstore(add(clone, 0x28), 0x5af43d82803e903d91602b57fd5bf30000000000000000000000000000000000)\r\n            result := create(0, clone, 0x37)\r\n        }\r\n    }\r\n}\r\n",
  "sourcePath": "/mnt/d/project/2021/intercoin/communitycontract/contracts/factory/CommunityContractFactory.sol",
  "compiler": {
    "name": "solc",
    "version": "0.6.2+commit.bacdbe57.Emscripten.clang"
  },
  "schemaVersion": "3.3.3",
  "updatedAt": "2021-03-03T23:43:36.486Z",
  "devdoc": {
    "methods": {
      "owner()": {
        "details": "Returns the address of the current owner."
      },
      "renounceOwnership()": {
        "details": "Leaves the contract without owner. It will not be possible to call `onlyOwner` functions anymore. Can only be called by the current owner.     * NOTE: Renouncing ownership will leave the contract without an owner, thereby removing any functionality that is only available to the owner."
      },
      "transferOwnership(address)": {
        "details": "Transfers ownership of the contract to a new account (`newOwner`). Can only be called by the current owner."
      }
    }
  },
  "userdoc": {
    "methods": {}
  }
}