{
  "contractName": "CommunityMock",
  "abi": [
    {
      "inputs": [
        {
          "internalType": "string",
          "name": "role",
          "type": "string"
        }
      ],
      "name": "memberCount",
      "outputs": [
        {
          "internalType": "uint256",
          "name": "",
          "type": "uint256"
        }
      ],
      "stateMutability": "view",
      "type": "function"
    },
    {
      "inputs": [
        {
          "internalType": "uint256",
          "name": "_count",
          "type": "uint256"
        }
      ],
      "name": "setMemberCount",
      "outputs": [
        {
          "internalType": "uint256",
          "name": "",
          "type": "uint256"
        }
      ],
      "stateMutability": "nonpayable",
      "type": "function"
    },
    {
      "inputs": [
        {
          "internalType": "address",
          "name": "member",
          "type": "address"
        }
      ],
      "name": "getRoles",
      "outputs": [
        {
          "internalType": "string[]",
          "name": "",
          "type": "string[]"
        }
      ],
      "stateMutability": "view",
      "type": "function"
    },
    {
      "inputs": [
        {
          "internalType": "string",
          "name": "role",
          "type": "string"
        }
      ],
      "name": "getMember",
      "outputs": [
        {
          "internalType": "address[]",
          "name": "",
          "type": "address[]"
        }
      ],
      "stateMutability": "view",
      "type": "function"
    }
  ],
  "bytecode": "0x6080604052600560005534801561001557600080fd5b506107d3806100256000396000f3fe608060405234801561001057600080fd5b506004361061004c5760003560e01c806312b3e1451461005157806312e6e7b3146100815780633c80d14f146100b1578063ce6ccfaf146100e1575b600080fd5b61006b6004803603610066919081019061041b565b610111565b60405161007891906105de565b60405180910390f35b61009b600480360361009691908101906103da565b61011f565b6040516100a8919061059a565b60405180910390f35b6100cb60048036036100c691908101906103da565b61015e565b6040516100d891906105de565b60405180910390f35b6100fb60048036036100f691908101906103b1565b610169565b60405161010891906105bc565b60405180910390f35b600081600081905550919050565b60608060006040519080825280602002602001820160405280156101525781602001602082028038833980820191505090505b50905080915050919050565b600080549050919050565b60608060056040519080825280602002602001820160405280156101a157816020015b606081526020019060019003908161018c5790505b5090506040518060400160405280600681526020017f6f776e6572730000000000000000000000000000000000000000000000000000815250816000815181106101e757fe5b60200260200101819052506040518060400160405280600681526020017f61646d696e7300000000000000000000000000000000000000000000000000008152508160018151811061023557fe5b60200260200101819052506040518060400160405280600781526020017f6d656d62657273000000000000000000000000000000000000000000000000008152508160028151811061028357fe5b60200260200101819052506040518060400160405280600a81526020017f7375622d61646d696e7300000000000000000000000000000000000000000000815250816003815181106102d157fe5b60200260200101819052506040518060400160405280600981526020017f756e6b776e6f776e7300000000000000000000000000000000000000000000008152508160048151811061031f57fe5b602002602001018190525080915050919050565b6000813590506103428161076f565b92915050565b600082601f83011261035957600080fd5b813561036c61036782610626565b6105f9565b9150808252602083016020830185838301111561038857600080fd5b61039383828461071c565b50505092915050565b6000813590506103ab81610786565b92915050565b6000602082840312156103c357600080fd5b60006103d184828501610333565b91505092915050565b6000602082840312156103ec57600080fd5b600082013567ffffffffffffffff81111561040657600080fd5b61041284828501610348565b91505092915050565b60006020828403121561042d57600080fd5b600061043b8482850161039c565b91505092915050565b60006104508383610470565b60208301905092915050565b60006104688383610552565b905092915050565b610479816106e0565b82525050565b600061048a82610672565b61049481856106ad565b935061049f83610652565b8060005b838110156104d05781516104b78882610444565b97506104c283610693565b9250506001810190506104a3565b5085935050505092915050565b60006104e88261067d565b6104f281856106be565b93508360208202850161050485610662565b8060005b858110156105405784840389528151610521858261045c565b945061052c836106a0565b925060208a01995050600181019050610508565b50829750879550505050505092915050565b600061055d82610688565b61056781856106cf565b935061057781856020860161072b565b6105808161075e565b840191505092915050565b61059481610712565b82525050565b600060208201905081810360008301526105b4818461047f565b905092915050565b600060208201905081810360008301526105d681846104dd565b905092915050565b60006020820190506105f3600083018461058b565b92915050565b6000604051905081810181811067ffffffffffffffff8211171561061c57600080fd5b8060405250919050565b600067ffffffffffffffff82111561063d57600080fd5b601f19601f8301169050602081019050919050565b6000819050602082019050919050565b6000819050602082019050919050565b600081519050919050565b600081519050919050565b600081519050919050565b6000602082019050919050565b6000602082019050919050565b600082825260208201905092915050565b600082825260208201905092915050565b600082825260208201905092915050565b60006106eb826106f2565b9050919050565b600073ffffffffffffffffffffffffffffffffffffffff82169050919050565b6000819050919050565b82818337600083830152505050565b60005b8381101561074957808201518184015260208101905061072e565b83811115610758576000848401525b50505050565b6000601f19601f8301169050919050565b610778816106e0565b811461078357600080fd5b50565b61078f81610712565b811461079a57600080fd5b5056fea2646970667358221220d4334082074d611aa86964cf2c328b8f80e09a8b09d2708c8b3120e779bc4ab364736f6c63430006020033",
  "source": "pragma solidity >=0.6.0 <0.7.0;\r\npragma experimental ABIEncoderV2;\r\n\r\nimport \"../interfaces/ICommunity.sol\";\r\n\r\n\r\ncontract CommunityMock is ICommunity {\r\n    uint256 count = 5;\r\n    \r\n    function memberCount(string memory role) public override view returns(uint256) {\r\n        return count;\r\n    }\r\n    function setMemberCount(uint256 _count) public returns(uint256) {\r\n        count = _count;\r\n    }\r\n    \r\n    function getRoles(address member)public override view returns(string[] memory){\r\n        string[] memory list = new string[](5);\r\n        list[0] = 'owners';\r\n        list[1] = 'admins';\r\n        list[2] = 'members';\r\n        list[3] = 'sub-admins';\r\n        list[4] = 'unkwnowns';\r\n        return list;\r\n        \r\n    }\r\n    function getMember(string memory role) public override view returns(address[] memory){\r\n        address[] memory list = new address[](0);\r\n        return list;\r\n    }\r\n    \r\n}\r\n",
  "sourcePath": "/mnt/g/project/2021/intercoin/statsContract/contracts/mock/CommunityMock.sol",
  "compiler": {
    "name": "solc",
    "version": "0.6.2+commit.bacdbe57.Emscripten.clang"
  },
  "schemaVersion": "3.3.4",
  "updatedAt": "2021-03-10T20:17:47.796Z",
  "devdoc": {
    "methods": {}
  },
  "userdoc": {
    "methods": {}
  }
}