{
  "contractName": "SomeExternalMock2",
  "abi": [
    {
      "inputs": [
        {
          "internalType": "contract iStats",
          "name": "addr",
          "type": "address"
        }
      ],
      "stateMutability": "nonpayable",
      "type": "constructor"
    },
    {
      "inputs": [
        {
          "internalType": "bytes32",
          "name": "tag",
          "type": "bytes32"
        }
      ],
      "name": "push_some_values",
      "outputs": [],
      "stateMutability": "nonpayable",
      "type": "function"
    },
    {
      "inputs": [
        {
          "internalType": "uint256",
          "name": "period",
          "type": "uint256"
        },
        {
          "internalType": "bytes32",
          "name": "tag",
          "type": "bytes32"
        }
      ],
      "name": "avgByTag",
      "outputs": [
        {
          "internalType": "uint256",
          "name": "avgValue",
          "type": "uint256"
        }
      ],
      "stateMutability": "view",
      "type": "function"
    },
    {
      "inputs": [
        {
          "internalType": "uint256",
          "name": "period",
          "type": "uint256"
        }
      ],
      "name": "avgSumByAllTags",
      "outputs": [
        {
          "internalType": "uint256",
          "name": "avgValue",
          "type": "uint256"
        }
      ],
      "stateMutability": "view",
      "type": "function"
    }
  ],
  "bytecode": "0x608060405234801561001057600080fd5b506040516105f73803806105f78339818101604052610032919081019061008d565b806000806101000a81548173ffffffffffffffffffffffffffffffffffffffff021916908373ffffffffffffffffffffffffffffffffffffffff16021790555050610111565b600081519050610087816100fa565b92915050565b60006020828403121561009f57600080fd5b60006100ad84828501610078565b91505092915050565b60006100c1826100da565b9050919050565b60006100d3826100b6565b9050919050565b600073ffffffffffffffffffffffffffffffffffffffff82169050919050565b610103816100c8565b811461010e57600080fd5b50565b6104d7806101206000396000f3fe608060405234801561001057600080fd5b50600436106100415760003560e01c80630415f8a814610046578063b9f7f2aa14610076578063c5015ba914610092575b600080fd5b610060600480360361005b9190810190610325565b6100c2565b60405161006d9190610409565b60405180910390f35b610090600480360361008b91908101906102fc565b610175565b005b6100ac60048036036100a79190810190610377565b610207565b6040516100b99190610409565b60405180910390f35b60008060009054906101000a900473ffffffffffffffffffffffffffffffffffffffff1673ffffffffffffffffffffffffffffffffffffffff16630415f8a8836040518263ffffffff1660e01b815260040161011e9190610409565b60206040518083038186803b15801561013657600080fd5b505afa15801561014a573d6000803e3d6000fd5b505050506040513d601f19601f8201168201806040525061016e919081019061034e565b9050919050565b6000809054906101000a900473ffffffffffffffffffffffffffffffffffffffff1673ffffffffffffffffffffffffffffffffffffffff16630f5bcc728260016040518363ffffffff1660e01b81526004016101d29291906103e0565b600060405180830381600087803b1580156101ec57600080fd5b505af1158015610200573d6000803e3d6000fd5b5050505050565b60008060009054906101000a900473ffffffffffffffffffffffffffffffffffffffff1673ffffffffffffffffffffffffffffffffffffffff1663c5015ba984846040518363ffffffff1660e01b8152600401610265929190610424565b60206040518083038186803b15801561027d57600080fd5b505afa158015610291573d6000803e3d6000fd5b505050506040513d601f19601f820116820180604052506102b5919081019061034e565b905092915050565b6000813590506102cc81610473565b92915050565b6000813590506102e18161048a565b92915050565b6000815190506102f68161048a565b92915050565b60006020828403121561030e57600080fd5b600061031c848285016102bd565b91505092915050565b60006020828403121561033757600080fd5b6000610345848285016102d2565b91505092915050565b60006020828403121561036057600080fd5b600061036e848285016102e7565b91505092915050565b6000806040838503121561038a57600080fd5b6000610398858286016102d2565b92505060206103a9858286016102bd565b9150509250929050565b6103bc8161044d565b82525050565b6103cb81610461565b82525050565b6103da81610457565b82525050565b60006040820190506103f560008301856103b3565b61040260208301846103c2565b9392505050565b600060208201905061041e60008301846103d1565b92915050565b600060408201905061043960008301856103d1565b61044660208301846103b3565b9392505050565b6000819050919050565b6000819050919050565b600061046c82610457565b9050919050565b61047c8161044d565b811461048757600080fd5b50565b61049381610457565b811461049e57600080fd5b5056fea2646970667358221220e9ae3fa5329a0081726b647e5d1a5afa666d4dc7fb047565790b31c59219a0d364736f6c63430006020033",
  "source": "pragma solidity >=0.6.0 <0.7.0;\r\npragma experimental ABIEncoderV2;\r\n\r\nimport \"../interfaces/iStats.sol\";\r\n\r\ncontract SomeExternalMock2 {\r\n     \r\n    \r\n    iStats private statsAddr;\r\n    constructor(iStats addr) public {\r\n        statsAddr = addr;\r\n        \r\n    }\r\n    \r\n    function push_some_values(bytes32 tag) public {\r\n        statsAddr.record(tag, 1);\r\n    }\r\n    \r\n    function avgByTag(uint256 period, bytes32 tag) public view returns(uint256 avgValue) {\r\n        avgValue = statsAddr.avgByTag(period, tag);\r\n    }\r\n    function avgSumByAllTags(uint256 period) public view returns(uint256 avgValue) {\r\n        avgValue = statsAddr.avgSumByAllTags(period);\r\n    }\r\n\r\n}",
  "sourcePath": "/mnt/g/project/2021/intercoin/statsContract/contracts/mock/SomeExternalMock2.sol",
  "compiler": {
    "name": "solc",
    "version": "0.6.2+commit.bacdbe57.Emscripten.clang"
  },
  "schemaVersion": "3.3.4",
  "updatedAt": "2021-03-10T20:17:47.803Z",
  "devdoc": {
    "methods": {}
  },
  "userdoc": {
    "methods": {}
  }
}