{
  "contractName": "SomeExternalMock",
  "abi": [
    {
      "inputs": [
        {
          "internalType": "contract Factory",
          "name": "addr",
          "type": "address"
        },
        {
          "internalType": "contract ICommunity",
          "name": "community",
          "type": "address"
        },
        {
          "internalType": "string",
          "name": "roleName",
          "type": "string"
        }
      ],
      "stateMutability": "nonpayable",
      "type": "constructor"
    },
    {
      "inputs": [
        {
          "internalType": "contract ICommunity",
          "name": "community",
          "type": "address"
        },
        {
          "internalType": "string",
          "name": "roleName",
          "type": "string"
        }
      ],
      "name": "getExtraStat",
      "outputs": [
        {
          "internalType": "contract iStats",
          "name": "",
          "type": "address"
        }
      ],
      "stateMutability": "nonpayable",
      "type": "function"
    },
    {
      "inputs": [],
      "name": "getStatsAddr",
      "outputs": [
        {
          "internalType": "contract iStats",
          "name": "",
          "type": "address"
        }
      ],
      "stateMutability": "view",
      "type": "function"
    },
    {
      "inputs": [
        {
          "internalType": "bytes32",
          "name": "tag",
          "type": "bytes32"
        }
      ],
      "name": "push1_10_values",
      "outputs": [],
      "stateMutability": "nonpayable",
      "type": "function"
    },
    {
      "inputs": [
        {
          "internalType": "uint256",
          "name": "period",
          "type": "uint256"
        },
        {
          "internalType": "bytes32",
          "name": "tag",
          "type": "bytes32"
        }
      ],
      "name": "avgByTag",
      "outputs": [
        {
          "internalType": "uint256",
          "name": "avgValue",
          "type": "uint256"
        }
      ],
      "stateMutability": "view",
      "type": "function"
    },
    {
      "inputs": [
        {
          "internalType": "uint256",
          "name": "period",
          "type": "uint256"
        }
      ],
      "name": "avgSumByAllTags",
      "outputs": [
        {
          "internalType": "uint256",
          "name": "avgValue",
          "type": "uint256"
        }
      ],
      "stateMutability": "view",
      "type": "function"
    }
  ],
  "bytecode": "0x60806040523480156200001157600080fd5b506040516200150b3803806200150b833981810160405262000037919081019062000215565b826000806101000a81548173ffffffffffffffffffffffffffffffffffffffff021916908373ffffffffffffffffffffffffffffffffffffffff1602179055506000809054906101000a900473ffffffffffffffffffffffffffffffffffffffff1673ffffffffffffffffffffffffffffffffffffffff1663b432c9c583836040518363ffffffff1660e01b8152600401620000d592919062000302565b602060405180830381600087803b158015620000f057600080fd5b505af115801562000105573d6000803e3d6000fd5b505050506040513d601f19601f820116820180604052506200012b919081019062000284565b600160006101000a81548173ffffffffffffffffffffffffffffffffffffffff021916908373ffffffffffffffffffffffffffffffffffffffff160217905550505050620004da565b60008151905062000185816200048c565b92915050565b6000815190506200019c81620004a6565b92915050565b600081519050620001b381620004c0565b92915050565b600082601f830112620001cb57600080fd5b8151620001e2620001dc8262000364565b62000336565b91508082526020830160208301858383011115620001ff57600080fd5b6200020c83828462000445565b50505092915050565b6000806000606084860312156200022b57600080fd5b60006200023b8682870162000174565b93505060206200024e868287016200018b565b925050604084015167ffffffffffffffff8111156200026c57600080fd5b6200027a86828701620001b9565b9150509250925092565b6000602082840312156200029757600080fd5b6000620002a784828501620001a2565b91505092915050565b620002bb816200041d565b82525050565b6000620002ce8262000391565b620002da81856200039c565b9350620002ec81856020860162000445565b620002f7816200047b565b840191505092915050565b6000604082019050620003196000830185620002b0565b81810360208301526200032d8184620002c1565b90509392505050565b6000604051905081810181811067ffffffffffffffff821117156200035a57600080fd5b8060405250919050565b600067ffffffffffffffff8211156200037c57600080fd5b601f19601f8301169050602081019050919050565b600081519050919050565b600082825260208201905092915050565b6000620003ba82620003fd565b9050919050565b6000620003ce82620003ad565b9050919050565b6000620003e282620003ad565b9050919050565b6000620003f682620003ad565b9050919050565b600073ffffffffffffffffffffffffffffffffffffffff82169050919050565b60006200042a8262000431565b9050919050565b60006200043e82620003fd565b9050919050565b60005b838110156200046557808201518184015260208101905062000448565b8381111562000475576000848401525b50505050565b6000601f19601f8301169050919050565b6200049781620003c1565b8114620004a357600080fd5b50565b620004b181620003d5565b8114620004bd57600080fd5b50565b620004cb81620003e9565b8114620004d757600080fd5b50565b61102180620004ea6000396000f3fe608060405234801561001057600080fd5b50600436106100575760003560e01c80630415f8a81461005c57806390024a331461008c578063970409d9146100bc578063c5015ba9146100da578063f3929ccd1461010a575b600080fd5b610076600480360361007191908101906109e9565b610126565b6040516100839190610d2f565b60405180910390f35b6100a660048036036100a1919081019061096c565b6101da565b6040516100b39190610d14565b60405180910390f35b6100c4610292565b6040516100d19190610d14565b60405180910390f35b6100f460048036036100ef9190810190610a3b565b6102bc565b6040516101019190610d2f565b60405180910390f35b610124600480360361011f9190810190610943565b610373565b005b6000600160009054906101000a900473ffffffffffffffffffffffffffffffffffffffff1673ffffffffffffffffffffffffffffffffffffffff16630415f8a8836040518263ffffffff1660e01b81526004016101839190610d2f565b60206040518083038186803b15801561019b57600080fd5b505afa1580156101af573d6000803e3d6000fd5b505050506040513d601f19601f820116820180604052506101d39190810190610a12565b9050919050565b60008060009054906101000a900473ffffffffffffffffffffffffffffffffffffffff1673ffffffffffffffffffffffffffffffffffffffff1663b432c9c584846040518363ffffffff1660e01b8152600401610238929190610ce4565b602060405180830381600087803b15801561025257600080fd5b505af1158015610266573d6000803e3d6000fd5b505050506040513d601f19601f8201168201806040525061028a91908101906109c0565b905092915050565b6000600160009054906101000a900473ffffffffffffffffffffffffffffffffffffffff16905090565b6000600160009054906101000a900473ffffffffffffffffffffffffffffffffffffffff1673ffffffffffffffffffffffffffffffffffffffff1663c5015ba984846040518363ffffffff1660e01b815260040161031b929190610d4a565b60206040518083038186803b15801561033357600080fd5b505afa158015610347573d6000803e3d6000fd5b505050506040513d601f19601f8201168201806040525061036b9190810190610a12565b905092915050565b600160009054906101000a900473ffffffffffffffffffffffffffffffffffffffff1673ffffffffffffffffffffffffffffffffffffffff16630f5bcc728260016040518363ffffffff1660e01b81526004016103d1929190610b73565b600060405180830381600087803b1580156103eb57600080fd5b505af11580156103ff573d6000803e3d6000fd5b50505050600160009054906101000a900473ffffffffffffffffffffffffffffffffffffffff1673ffffffffffffffffffffffffffffffffffffffff16630f5bcc728260026040518363ffffffff1660e01b8152600401610461929190610b9c565b600060405180830381600087803b15801561047b57600080fd5b505af115801561048f573d6000803e3d6000fd5b50505050600160009054906101000a900473ffffffffffffffffffffffffffffffffffffffff1673ffffffffffffffffffffffffffffffffffffffff16630f5bcc728260036040518363ffffffff1660e01b81526004016104f1929190610bc5565b600060405180830381600087803b15801561050b57600080fd5b505af115801561051f573d6000803e3d6000fd5b50505050600160009054906101000a900473ffffffffffffffffffffffffffffffffffffffff1673ffffffffffffffffffffffffffffffffffffffff16630f5bcc728260046040518363ffffffff1660e01b8152600401610581929190610bee565b600060405180830381600087803b15801561059b57600080fd5b505af11580156105af573d6000803e3d6000fd5b50505050600160009054906101000a900473ffffffffffffffffffffffffffffffffffffffff1673ffffffffffffffffffffffffffffffffffffffff16630f5bcc728260056040518363ffffffff1660e01b8152600401610611929190610c17565b600060405180830381600087803b15801561062b57600080fd5b505af115801561063f573d6000803e3d6000fd5b50505050600160009054906101000a900473ffffffffffffffffffffffffffffffffffffffff1673ffffffffffffffffffffffffffffffffffffffff16630f5bcc728260066040518363ffffffff1660e01b81526004016106a1929190610c40565b600060405180830381600087803b1580156106bb57600080fd5b505af11580156106cf573d6000803e3d6000fd5b50505050600160009054906101000a900473ffffffffffffffffffffffffffffffffffffffff1673ffffffffffffffffffffffffffffffffffffffff16630f5bcc728260076040518363ffffffff1660e01b8152600401610731929190610c69565b600060405180830381600087803b15801561074b57600080fd5b505af115801561075f573d6000803e3d6000fd5b50505050600160009054906101000a900473ffffffffffffffffffffffffffffffffffffffff1673ffffffffffffffffffffffffffffffffffffffff16630f5bcc728260086040518363ffffffff1660e01b81526004016107c1929190610c92565b600060405180830381600087803b1580156107db57600080fd5b505af11580156107ef573d6000803e3d6000fd5b50505050600160009054906101000a900473ffffffffffffffffffffffffffffffffffffffff1673ffffffffffffffffffffffffffffffffffffffff16630f5bcc728260096040518363ffffffff1660e01b8152600401610851929190610cbb565b600060405180830381600087803b15801561086b57600080fd5b505af115801561087f573d6000803e3d6000fd5b5050505050565b60008135905061089581610f8f565b92915050565b6000813590506108aa81610fa6565b92915050565b6000815190506108bf81610fbd565b92915050565b600082601f8301126108d657600080fd5b81356108e96108e482610da0565b610d73565b9150808252602083016020830185838301111561090557600080fd5b610910838284610f3c565b50505092915050565b60008135905061092881610fd4565b92915050565b60008151905061093d81610fd4565b92915050565b60006020828403121561095557600080fd5b600061096384828501610886565b91505092915050565b6000806040838503121561097f57600080fd5b600061098d8582860161089b565b925050602083013567ffffffffffffffff8111156109aa57600080fd5b6109b6858286016108c5565b9150509250929050565b6000602082840312156109d257600080fd5b60006109e0848285016108b0565b91505092915050565b6000602082840312156109fb57600080fd5b6000610a0984828501610919565b91505092915050565b600060208284031215610a2457600080fd5b6000610a328482850161092e565b91505092915050565b60008060408385031215610a4e57600080fd5b6000610a5c85828601610919565b9250506020610a6d85828601610886565b9150509250929050565b610a8081610dfa565b82525050565b610a8f81610e52565b82525050565b610a9e81610e76565b82525050565b610aad81610e9a565b82525050565b610abc81610eac565b82525050565b610acb81610ebe565b82525050565b610ada81610ed0565b82525050565b610ae981610ee2565b82525050565b610af881610ef4565b82525050565b610b0781610f06565b82525050565b610b1681610f18565b82525050565b610b2581610f2a565b82525050565b6000610b3682610dcc565b610b408185610dd7565b9350610b50818560208601610f4b565b610b5981610f7e565b840191505092915050565b610b6d81610e48565b82525050565b6000604082019050610b886000830185610a77565b610b956020830184610aa4565b9392505050565b6000604082019050610bb16000830185610a77565b610bbe6020830184610ab3565b9392505050565b6000604082019050610bda6000830185610a77565b610be76020830184610ac2565b9392505050565b6000604082019050610c036000830185610a77565b610c106020830184610ad1565b9392505050565b6000604082019050610c2c6000830185610a77565b610c396020830184610ae0565b9392505050565b6000604082019050610c556000830185610a77565b610c626020830184610aef565b9392505050565b6000604082019050610c7e6000830185610a77565b610c8b6020830184610afe565b9392505050565b6000604082019050610ca76000830185610a77565b610cb46020830184610b0d565b9392505050565b6000604082019050610cd06000830185610a77565b610cdd6020830184610b1c565b9392505050565b6000604082019050610cf96000830185610a86565b8181036020830152610d0b8184610b2b565b90509392505050565b6000602082019050610d296000830184610a95565b92915050565b6000602082019050610d446000830184610b64565b92915050565b6000604082019050610d5f6000830185610b64565b610d6c6020830184610a77565b9392505050565b6000604051905081810181811067ffffffffffffffff82111715610d9657600080fd5b8060405250919050565b600067ffffffffffffffff821115610db757600080fd5b601f19601f8301169050602081019050919050565b600081519050919050565b600082825260208201905092915050565b6000610df382610e28565b9050919050565b6000819050919050565b6000610e0f82610de8565b9050919050565b6000610e2182610de8565b9050919050565b600073ffffffffffffffffffffffffffffffffffffffff82169050919050565b6000819050919050565b6000610e5d82610e64565b9050919050565b6000610e6f82610e28565b9050919050565b6000610e8182610e88565b9050919050565b6000610e9382610e28565b9050919050565b6000610ea582610e48565b9050919050565b6000610eb782610e48565b9050919050565b6000610ec982610e48565b9050919050565b6000610edb82610e48565b9050919050565b6000610eed82610e48565b9050919050565b6000610eff82610e48565b9050919050565b6000610f1182610e48565b9050919050565b6000610f2382610e48565b9050919050565b6000610f3582610e48565b9050919050565b82818337600083830152505050565b60005b83811015610f69578082015181840152602081019050610f4e565b83811115610f78576000848401525b50505050565b6000601f19601f8301169050919050565b610f9881610dfa565b8114610fa357600080fd5b50565b610faf81610e04565b8114610fba57600080fd5b50565b610fc681610e16565b8114610fd157600080fd5b50565b610fdd81610e48565b8114610fe857600080fd5b5056fea2646970667358221220c55253dda79a4f0c999c733a31bc0688dc8c67f72972f6fa467f4d406b0a857d64736f6c63430006020033",
  "source": "pragma solidity >=0.6.0 <0.7.0;\r\npragma experimental ABIEncoderV2;\r\n\r\nimport \"../interfaces/ICommunity.sol\";\r\nimport \"../interfaces/iStats.sol\";\r\n\r\ninterface Factory {\r\n    function produce(ICommunity community,string calldata roleName) external returns(iStats);\r\n}\r\n\r\n\r\ncontract SomeExternalMock {\r\n     \r\n    Factory factoryAddress;\r\n    iStats private statsAddr;\r\n    constructor(\r\n        Factory addr,\r\n        ICommunity community,\r\n        string memory roleName\r\n    ) \r\n        public \r\n    {\r\n        factoryAddress = addr;\r\n        \r\n        statsAddr = factoryAddress.produce(\r\n            community,\r\n            roleName\r\n        );\r\n    }\r\n    \r\n    function getExtraStat(\r\n        ICommunity community,\r\n        string memory roleName\r\n    ) \r\n        public \r\n        returns(iStats) \r\n    {\r\n        return factoryAddress.produce(\r\n            community,\r\n            roleName\r\n        );\r\n    }\r\n    \r\n    function getStatsAddr() public view returns(iStats) {\r\n        return statsAddr;\r\n    }\r\n    function push1_10_values(bytes32 tag) public {\r\n        statsAddr.record(tag, 1);\r\n        statsAddr.record(tag, 2);\r\n        statsAddr.record(tag, 3);\r\n        statsAddr.record(tag, 4);\r\n        statsAddr.record(tag, 5);\r\n        statsAddr.record(tag, 6);\r\n        statsAddr.record(tag, 7);\r\n        statsAddr.record(tag, 8);\r\n        statsAddr.record(tag, 9);\r\n    }\r\n    \r\n    function avgByTag(uint256 period, bytes32 tag) public view returns(uint256 avgValue) {\r\n        avgValue = statsAddr.avgByTag(period, tag);\r\n    }\r\n    function avgSumByAllTags(uint256 period) public view returns(uint256 avgValue) {\r\n        avgValue = statsAddr.avgSumByAllTags(period);\r\n    }\r\n\r\n}",
  "sourcePath": "/mnt/g/project/2021/intercoin/statsContract/contracts/mock/SomeExternalMock.sol",
  "compiler": {
    "name": "solc",
    "version": "0.6.2+commit.bacdbe57.Emscripten.clang"
  },
  "schemaVersion": "3.3.4",
  "updatedAt": "2021-03-10T20:17:47.800Z",
  "devdoc": {
    "methods": {}
  },
  "userdoc": {
    "methods": {}
  }
}