{
  "contractName": "StatsFactory",
  "abi": [
    {
      "inputs": [],
      "stateMutability": "nonpayable",
      "type": "constructor"
    },
    {
      "anonymous": false,
      "inputs": [
        {
          "indexed": false,
          "internalType": "contract Stats",
          "name": "addr",
          "type": "address"
        }
      ],
      "name": "Produced",
      "type": "event"
    },
    {
      "inputs": [
        {
          "internalType": "contract ICommunity",
          "name": "community",
          "type": "address"
        },
        {
          "internalType": "string",
          "name": "roleName",
          "type": "string"
        }
      ],
      "name": "produce",
      "outputs": [
        {
          "internalType": "contract Stats",
          "name": "",
          "type": "address"
        }
      ],
      "stateMutability": "nonpayable",
      "type": "function"
    }
  ],
  "bytecode": "0x608060405234801561001057600080fd5b5060405161001d9061007e565b604051809103906000f080158015610039573d6000803e3d6000fd5b506000806101000a81548173ffffffffffffffffffffffffffffffffffffffff021916908373ffffffffffffffffffffffffffffffffffffffff16021790555061008b565b611e9b806104bc83390190565b6104228061009a6000396000f3fe608060405234801561001057600080fd5b506004361061002b5760003560e01c8063b432c9c514610030575b600080fd5b6101096004803603604081101561004657600080fd5b81019080803573ffffffffffffffffffffffffffffffffffffffff1690602001909291908035906020019064010000000081111561008357600080fd5b82018360208201111561009557600080fd5b803590602001918460018302840111640100000000831117156100b757600080fd5b91908080601f016020809104026020016040519081016040528093929190818152602001838380828437600081840152601f19601f82011690508083019250505050505050919291929050505061014b565b604051808273ffffffffffffffffffffffffffffffffffffffff1673ffffffffffffffffffffffffffffffffffffffff16815260200191505060405180910390f35b6000806101786000809054906101000a900473ffffffffffffffffffffffffffffffffffffffff16610382565b90508073ffffffffffffffffffffffffffffffffffffffff1663f321b30585856040518363ffffffff1660e01b8152600401808373ffffffffffffffffffffffffffffffffffffffff1673ffffffffffffffffffffffffffffffffffffffff16815260200180602001828103825283818151815260200191508051906020019080838360005b838110156102195780820151818401526020810190506101fe565b50505050905090810190601f1680156102465780820380516001836020036101000a031916815260200191505b509350505050600060405180830381600087803b15801561026657600080fd5b505af115801561027a573d6000803e3d6000fd5b505050508073ffffffffffffffffffffffffffffffffffffffff1663f2fde38b336040518263ffffffff1660e01b8152600401808273ffffffffffffffffffffffffffffffffffffffff1673ffffffffffffffffffffffffffffffffffffffff168152602001915050600060405180830381600087803b1580156102fd57600080fd5b505af1158015610311573d6000803e3d6000fd5b505050507f33aa749fb896460032cecf98ef36627f041bbaaf768a0989a8cfe7b3354bc13081604051808273ffffffffffffffffffffffffffffffffffffffff1673ffffffffffffffffffffffffffffffffffffffff16815260200191505060405180910390a18091505092915050565b6000808260601b90506040517f3d602d80600a3d3981f3363d3d373d3d3d363d7300000000000000000000000081528160148201527f5af43d82803e903d91602b57fd5bf3000000000000000000000000000000000060288201526037816000f09250505091905056fea264697066735822122082e04f05e65fd374ed55daef894e571380ff5fda10b4b493edbc4c4ce51896b264736f6c63430006020033608060405234801561001057600080fd5b50611e7b806100206000396000f3fe608060405234801561001057600080fd5b50600436106100885760003560e01c80638da5cb5b1161005b5780638da5cb5b146100ff578063c5015ba91461011d578063f2fde38b1461014d578063f321b3051461016957610088565b80630415f8a81461008d5780630f5bcc72146100bd5780633d73a17c146100d9578063715018a6146100f5575b600080fd5b6100a760048036036100a291908101906117bd565b610185565b6040516100b49190611bf9565b60405180910390f35b6100d760048036036100d2919081019061172d565b6101db565b005b6100f360048036036100ee9190810190611704565b61040d565b005b6100fd6105e7565b005b61010761073f565b6040516101149190611b01565b60405180910390f35b610137600480360361013291908101906117e6565b610769565b6040516101449190611bf9565b60405180910390f35b6101676004803603610162919081019061169a565b610804565b005b610183600480360361017e9190810190611769565b6109cb565b005b600080600190505b6098548110156101d5576101c66101b784609a600085815260200190815260200160002054610769565b83610bd790919063ffffffff16565b9150808060010191505061018d565b50919050565b60008090506060609e60009054906101000a900473ffffffffffffffffffffffffffffffffffffffff1673ffffffffffffffffffffffffffffffffffffffff1663ce6ccfaf336040518263ffffffff1660e01b815260040161023d9190611b1c565b60006040518083038186803b15801561025557600080fd5b505afa158015610269573d6000803e3d6000fd5b505050506040513d6000823e3d601f19601f8201168201806040525061029291908101906116c3565b905060008090505b815181101561031d578181815181106102af57fe5b60200260200101516040516020016102c79190611ad3565b60405160208183030381529060405280519060200120609f6040516020016102ef9190611aea565b60405160208183030381529060405280519060200120141561031057600192505b808060010191505061029a565b506001151582151514610365576040517f08c379a000000000000000000000000000000000000000000000000000000000815260040161035c90611bd9565b60405180910390fd5b61036e84610c2c565b82609c6000609b5481526020019081526020016000206000018190555042609c6000609b5481526020019081526020016000206001018190555060008090505b6097805490508110156103ea576103dd609782815481106103cb57fe5b90600052602060002001548686610c9c565b80806001019150506103ae565b506104016001609b54610bd790919063ffffffff16565b609b8190555050505050565b60008090506060609e60009054906101000a900473ffffffffffffffffffffffffffffffffffffffff1673ffffffffffffffffffffffffffffffffffffffff1663ce6ccfaf336040518263ffffffff1660e01b815260040161046f9190611b1c565b60006040518083038186803b15801561048757600080fd5b505afa15801561049b573d6000803e3d6000fd5b505050506040513d6000823e3d601f19601f820116820180604052506104c491908101906116c3565b905060008090505b815181101561054f578181815181106104e157fe5b60200260200101516040516020016104f99190611ad3565b60405160208183030381529060405280519060200120609f6040516020016105219190611aea565b60405160208183030381529060405280519060200120141561054257600192505b80806001019150506104cc565b506001151582151514610597576040517f08c379a000000000000000000000000000000000000000000000000000000000815260040161058e90611bd9565b60405180910390fd5b6105a083610c2c565b60008090505b6097805490508110156105e1576105d4609782815481106105c357fe5b906000526020600020015485610dd5565b80806001019150506105a6565b50505050565b6105ef610fa2565b73ffffffffffffffffffffffffffffffffffffffff16606560009054906101000a900473ffffffffffffffffffffffffffffffffffffffff1673ffffffffffffffffffffffffffffffffffffffff161461067e576040517f08c379a000000000000000000000000000000000000000000000000000000000815260040161067590611b99565b60405180910390fd5b600073ffffffffffffffffffffffffffffffffffffffff16606560009054906101000a900473ffffffffffffffffffffffffffffffffffffffff1673ffffffffffffffffffffffffffffffffffffffff167f8be0079c531659141344cd1fd0a4f28419497f9722a3daafe3b4186f6b6457e060405160405180910390a36000606560006101000a81548173ffffffffffffffffffffffffffffffffffffffff021916908373ffffffffffffffffffffffffffffffffffffffff160217905550565b6000606560009054906101000a900473ffffffffffffffffffffffffffffffffffffffff16905090565b600080609d600085815260200190815260200160002060008481526020019081526020016000206001015411156107fe576107fb609d6000858152602001908152602001600020600084815260200190815260200160002060010154609d6000868152602001908152602001600020600085815260200190815260200160002060000154610faa90919063ffffffff16565b90505b92915050565b61080c610fa2565b73ffffffffffffffffffffffffffffffffffffffff16606560009054906101000a900473ffffffffffffffffffffffffffffffffffffffff1673ffffffffffffffffffffffffffffffffffffffff161461089b576040517f08c379a000000000000000000000000000000000000000000000000000000000815260040161089290611b99565b60405180910390fd5b600073ffffffffffffffffffffffffffffffffffffffff168173ffffffffffffffffffffffffffffffffffffffff16141561090b576040517f08c379a000000000000000000000000000000000000000000000000000000000815260040161090290611b59565b60405180910390fd5b8073ffffffffffffffffffffffffffffffffffffffff16606560009054906101000a900473ffffffffffffffffffffffffffffffffffffffff1673ffffffffffffffffffffffffffffffffffffffff167f8be0079c531659141344cd1fd0a4f28419497f9722a3daafe3b4186f6b6457e060405160405180910390a380606560006101000a81548173ffffffffffffffffffffffffffffffffffffffff021916908373ffffffffffffffffffffffffffffffffffffffff16021790555050565b600060019054906101000a900460ff16806109ea57506109e9610ff4565b5b80610a0157506000809054906101000a900460ff16155b610a40576040517f08c379a0000000000000000000000000000000000000000000000000000000008152600401610a3790611bb9565b60405180910390fd5b60008060019054906101000a900460ff161590508015610a90576001600060016101000a81548160ff02191690831515021790555060016000806101000a81548160ff0219169083151502179055505b610a9861100b565b82609e60006101000a81548173ffffffffffffffffffffffffffffffffffffffff021916908373ffffffffffffffffffffffffffffffffffffffff16021790555081609f9080519060200190610aef929190611485565b506097620151809080600181540180825580915050600190039060005260206000200160009091909190915055609762093a809080600181540180825580915050600190039060005260206000200160009091909190915055609762278d00908060018154018082558091505060019003906000526020600020016000909190919091505560976301e1338090806001815401808255809150506001900390600052602060002001600090919091909150556001609b8190555060016098819055508015610bd25760008060016101000a81548160ff0219169083151502179055505b505050565b600080828401905083811015610c22576040517f08c379a0000000000000000000000000000000000000000000000000000000008152600401610c1990611b79565b60405180910390fd5b8091505092915050565b600060996000838152602001908152602001600020541415610c9957609854609960008381526020019081526020016000208190555080609a6000609854815260200190815260200160002081905550610c926001609854610bd790919063ffffffff16565b6098819055505b50565b610ca68383610dd5565b6000609d60008581526020019081526020016000206000848152602001908152602001600020600201541415610d0557609b54609d60008581526020019081526020016000206000848152602001908152602001600020600201819055505b610d3f81609d6000868152602001908152602001600020600085815260200190815260200160002060000154610bd790919063ffffffff16565b609d6000858152602001908152602001600020600084815260200190815260200160002060000181905550610da56001609d6000868152602001908152602001600020600085815260200190815260200160002060010154610bd790919063ffffffff16565b609d6000858152602001908152602001600020600084815260200190815260200160002060010181905550505050565b6000609d60008481526020019081526020016000206000838152602001908152602001600020600201541415610e0a57610f9e565b6000609d600084815260200190815260200160002060008381526020019081526020016000206002015490505b82610e61609c6000848152602001908152602001600020600101544261110490919063ffffffff16565b118015610e6f5750609b5481105b15610f9c57610ec4609c600083815260200190815260200160002060000154609d600086815260200190815260200160002060008581526020019081526020016000206000015461110490919063ffffffff16565b609d6000858152602001908152602001600020600084815260200190815260200160002060000181905550610f2a6001609d600086815260200190815260200160002060008581526020019081526020016000206001015461110490919063ffffffff16565b609d6000858152602001908152602001600020600084815260200190815260200160002060010181905550610f69600182610bd790919063ffffffff16565b905080609d6000858152602001908152602001600020600084815260200190815260200160002060020181905550610e37565b505b5050565b600033905090565b6000610fec83836040518060400160405280601a81526020017f536166654d6174683a206469766973696f6e206279207a65726f00000000000081525061114e565b905092915050565b6000803090506000813b9050600081149250505090565b600060019054906101000a900460ff168061102a5750611029610ff4565b5b8061104157506000809054906101000a900460ff16155b611080576040517f08c379a000000000000000000000000000000000000000000000000000000000815260040161107790611bb9565b60405180910390fd5b60008060019054906101000a900460ff1615905080156110d0576001600060016101000a81548160ff02191690831515021790555060016000806101000a81548160ff0219169083151502179055505b6110d86111af565b6110e0611298565b80156111015760008060016101000a81548160ff0219169083151502179055505b50565b600061114683836040518060400160405280601e81526020017f536166654d6174683a207375627472616374696f6e206f766572666c6f77000081525061142a565b905092915050565b60008083118290611195576040517f08c379a000000000000000000000000000000000000000000000000000000000815260040161118c9190611b37565b60405180910390fd5b5060008385816111a157fe5b049050809150509392505050565b600060019054906101000a900460ff16806111ce57506111cd610ff4565b5b806111e557506000809054906101000a900460ff16155b611224576040517f08c379a000000000000000000000000000000000000000000000000000000000815260040161121b90611bb9565b60405180910390fd5b60008060019054906101000a900460ff161590508015611274576001600060016101000a81548160ff02191690831515021790555060016000806101000a81548160ff0219169083151502179055505b80156112955760008060016101000a81548160ff0219169083151502179055505b50565b600060019054906101000a900460ff16806112b757506112b6610ff4565b5b806112ce57506000809054906101000a900460ff16155b61130d576040517f08c379a000000000000000000000000000000000000000000000000000000000815260040161130490611bb9565b60405180910390fd5b60008060019054906101000a900460ff16159050801561135d576001600060016101000a81548160ff02191690831515021790555060016000806101000a81548160ff0219169083151502179055505b6000611367610fa2565b905080606560006101000a81548173ffffffffffffffffffffffffffffffffffffffff021916908373ffffffffffffffffffffffffffffffffffffffff1602179055508073ffffffffffffffffffffffffffffffffffffffff16600073ffffffffffffffffffffffffffffffffffffffff167f8be0079c531659141344cd1fd0a4f28419497f9722a3daafe3b4186f6b6457e060405160405180910390a35080156114275760008060016101000a81548160ff0219169083151502179055505b50565b6000838311158290611472576040517f08c379a00000000000000000000000000000000000000000000000000000000081526004016114699190611b37565b60405180910390fd5b5060008385039050809150509392505050565b828054600181600116156101000203166002900490600052602060002090601f016020900481019282601f106114c657805160ff19168380011785556114f4565b828001600101855582156114f4579182015b828111156114f35782518255916020019190600101906114d8565b5b5090506115019190611505565b5090565b61152791905b8082111561152357600081600090555060010161150b565b5090565b90565b60008135905061153981611de9565b92915050565b600082601f83011261155057600080fd5b815161156361155e82611c41565b611c14565b9150818183526020840193506020810190508360005b838110156115a9578151860161158f88826115dd565b845260208401935060208301925050600181019050611579565b5050505092915050565b6000813590506115c281611e00565b92915050565b6000813590506115d781611e17565b92915050565b600082601f8301126115ee57600080fd5b81516116016115fc82611c69565b611c14565b9150808252602083016020830185838301111561161d57600080fd5b611628838284611da5565b50505092915050565b600082601f83011261164257600080fd5b813561165561165082611c95565b611c14565b9150808252602083016020830185838301111561167157600080fd5b61167c838284611d96565b50505092915050565b60008135905061169481611e2e565b92915050565b6000602082840312156116ac57600080fd5b60006116ba8482850161152a565b91505092915050565b6000602082840312156116d557600080fd5b600082015167ffffffffffffffff8111156116ef57600080fd5b6116fb8482850161153f565b91505092915050565b60006020828403121561171657600080fd5b6000611724848285016115b3565b91505092915050565b6000806040838503121561174057600080fd5b600061174e858286016115b3565b925050602061175f85828601611685565b9150509250929050565b6000806040838503121561177c57600080fd5b600061178a858286016115c8565b925050602083013567ffffffffffffffff8111156117a757600080fd5b6117b385828601611631565b9150509250929050565b6000602082840312156117cf57600080fd5b60006117dd84828501611685565b91505092915050565b600080604083850312156117f957600080fd5b600061180785828601611685565b9250506020611818858286016115b3565b9150509250929050565b61182b81611d60565b82525050565b61183a81611d08565b82525050565b600061184b82611ce1565b6118558185611cec565b9350611865818560208601611da5565b61186e81611dd8565b840191505092915050565b600061188482611cd6565b61188e8185611cfd565b935061189e818560208601611da5565b80840191505092915050565b6000815460018116600081146118c757600181146118ec57611930565b607f60028304166118d88187611cfd565b955060ff1983168652808601935050611930565b600282046118fa8187611cfd565b955061190585611cc1565b60005b8281101561192757815481890152600182019150602081019050611908565b82880195505050505b505092915050565b6000611945602683611cec565b91507f4f776e61626c653a206e6577206f776e657220697320746865207a65726f206160008301527f64647265737300000000000000000000000000000000000000000000000000006020830152604082019050919050565b60006119ab601b83611cec565b91507f536166654d6174683a206164646974696f6e206f766572666c6f7700000000006000830152602082019050919050565b60006119eb602083611cec565b91507f4f776e61626c653a2063616c6c6572206973206e6f7420746865206f776e65726000830152602082019050919050565b6000611a2b602e83611cec565b91507f436f6e747261637420696e7374616e63652068617320616c726561647920626560008301527f656e20696e697469616c697a65640000000000000000000000000000000000006020830152604082019050919050565b6000611a91601a83611cec565b91507f53656e646572206973206e6f7420696e2077686974656c6973740000000000006000830152602082019050919050565b611acd81611d56565b82525050565b6000611adf8284611879565b915081905092915050565b6000611af682846118aa565b915081905092915050565b6000602082019050611b166000830184611831565b92915050565b6000602082019050611b316000830184611822565b92915050565b60006020820190508181036000830152611b518184611840565b905092915050565b60006020820190508181036000830152611b7281611938565b9050919050565b60006020820190508181036000830152611b928161199e565b9050919050565b60006020820190508181036000830152611bb2816119de565b9050919050565b60006020820190508181036000830152611bd281611a1e565b9050919050565b60006020820190508181036000830152611bf281611a84565b9050919050565b6000602082019050611c0e6000830184611ac4565b92915050565b6000604051905081810181811067ffffffffffffffff82111715611c3757600080fd5b8060405250919050565b600067ffffffffffffffff821115611c5857600080fd5b602082029050602081019050919050565b600067ffffffffffffffff821115611c8057600080fd5b601f19601f8301169050602081019050919050565b600067ffffffffffffffff821115611cac57600080fd5b601f19601f8301169050602081019050919050565b60008190508160005260206000209050919050565b600081519050919050565b600081519050919050565b600082825260208201905092915050565b600081905092915050565b6000611d1382611d36565b9050919050565b6000819050919050565b6000611d2f82611d08565b9050919050565b600073ffffffffffffffffffffffffffffffffffffffff82169050919050565b6000819050919050565b6000611d6b82611d72565b9050919050565b6000611d7d82611d84565b9050919050565b6000611d8f82611d36565b9050919050565b82818337600083830152505050565b60005b83811015611dc3578082015181840152602081019050611da8565b83811115611dd2576000848401525b50505050565b6000601f19601f8301169050919050565b611df281611d08565b8114611dfd57600080fd5b50565b611e0981611d1a565b8114611e1457600080fd5b50565b611e2081611d24565b8114611e2b57600080fd5b50565b611e3781611d56565b8114611e4257600080fd5b5056fea2646970667358221220db776b241a1e168dd4b8bbca095da0ca06cd761c07737dfd3fe41576d7d9e11864736f6c63430006020033",
  "source": "pragma solidity ^0.6.0;\r\nimport \"../Stats.sol\";\r\n\r\ncontract StatsFactory {\r\n    \r\n    Stats private implementationContract;\r\n    event Produced(Stats addr);\r\n    constructor () public {\r\n        implementationContract = new Stats();\r\n    }\r\n  \r\n    function produce(\r\n        ICommunity community,\r\n        string memory roleName\r\n    ) \r\n        public \r\n        returns (Stats)\r\n    {\r\n    \r\n        Stats proxy = Stats(\r\n            createClone(address(implementationContract))\r\n        );\r\n        \r\n        proxy.init(community, roleName);\r\n        proxy.transferOwnership(msg.sender);\r\n        emit Produced(proxy);\r\n        return proxy;\r\n    }\r\n  \r\n    function createClone(\r\n        address target\r\n    )\r\n        internal \r\n        returns (address result) \r\n    {\r\n        bytes20 targetBytes = bytes20(target);\r\n        assembly {\r\n            let clone := mload(0x40)\r\n            mstore(clone, 0x3d602d80600a3d3981f3363d3d373d3d3d363d73000000000000000000000000)\r\n            mstore(add(clone, 0x14), targetBytes)\r\n            mstore(add(clone, 0x28), 0x5af43d82803e903d91602b57fd5bf30000000000000000000000000000000000)\r\n            result := create(0, clone, 0x37)\r\n        }\r\n    }\r\n  \r\n}\r\n",
  "sourcePath": "/mnt/g/project/2021/intercoin/statsContract/contracts/factory/StatsFactory.sol",
  "compiler": {
    "name": "solc",
    "version": "0.6.2+commit.bacdbe57.Emscripten.clang"
  },
  "schemaVersion": "3.3.4",
  "updatedAt": "2021-03-10T20:17:47.786Z",
  "devdoc": {
    "methods": {}
  },
  "userdoc": {
    "methods": {}
  }
}