{
  "contractName": "StatsMock",
  "abi": [
    {
      "anonymous": false,
      "inputs": [
        {
          "indexed": true,
          "internalType": "address",
          "name": "previousOwner",
          "type": "address"
        },
        {
          "indexed": true,
          "internalType": "address",
          "name": "newOwner",
          "type": "address"
        }
      ],
      "name": "OwnershipTransferred",
      "type": "event"
    },
    {
      "inputs": [
        {
          "internalType": "uint256",
          "name": "period",
          "type": "uint256"
        },
        {
          "internalType": "bytes32",
          "name": "tag",
          "type": "bytes32"
        }
      ],
      "name": "avgByTag",
      "outputs": [
        {
          "internalType": "uint256",
          "name": "avgValue",
          "type": "uint256"
        }
      ],
      "stateMutability": "view",
      "type": "function"
    },
    {
      "inputs": [
        {
          "internalType": "uint256",
          "name": "period",
          "type": "uint256"
        }
      ],
      "name": "avgSumByAllTags",
      "outputs": [
        {
          "internalType": "uint256",
          "name": "avgValue",
          "type": "uint256"
        }
      ],
      "stateMutability": "view",
      "type": "function"
    },
    {
      "inputs": [
        {
          "internalType": "contract ICommunity",
          "name": "community",
          "type": "address"
        },
        {
          "internalType": "string",
          "name": "roleName",
          "type": "string"
        }
      ],
      "name": "init",
      "outputs": [],
      "stateMutability": "nonpayable",
      "type": "function"
    },
    {
      "inputs": [],
      "name": "owner",
      "outputs": [
        {
          "internalType": "address",
          "name": "",
          "type": "address"
        }
      ],
      "stateMutability": "view",
      "type": "function"
    },
    {
      "inputs": [
        {
          "internalType": "bytes32",
          "name": "tag",
          "type": "bytes32"
        },
        {
          "internalType": "uint256",
          "name": "value",
          "type": "uint256"
        }
      ],
      "name": "record",
      "outputs": [],
      "stateMutability": "nonpayable",
      "type": "function"
    },
    {
      "inputs": [],
      "name": "renounceOwnership",
      "outputs": [],
      "stateMutability": "nonpayable",
      "type": "function"
    },
    {
      "inputs": [
        {
          "internalType": "address",
          "name": "newOwner",
          "type": "address"
        }
      ],
      "name": "transferOwnership",
      "outputs": [],
      "stateMutability": "nonpayable",
      "type": "function"
    },
    {
      "inputs": [
        {
          "internalType": "bytes32",
          "name": "tag",
          "type": "bytes32"
        }
      ],
      "name": "updateStat",
      "outputs": [],
      "stateMutability": "nonpayable",
      "type": "function"
    },
    {
      "inputs": [
        {
          "internalType": "uint256",
          "name": "period",
          "type": "uint256"
        },
        {
          "internalType": "bytes32",
          "name": "tag",
          "type": "bytes32"
        }
      ],
      "name": "getStats",
      "outputs": [
        {
          "components": [
            {
              "internalType": "uint256",
              "name": "total",
              "type": "uint256"
            },
            {
              "internalType": "uint256",
              "name": "count",
              "type": "uint256"
            },
            {
              "internalType": "uint256",
              "name": "oldestKey",
              "type": "uint256"
            }
          ],
          "internalType": "struct Stats.Data",
          "name": "",
          "type": "tuple"
        }
      ],
      "stateMutability": "view",
      "type": "function"
    },
    {
      "inputs": [
        {
          "internalType": "uint256",
          "name": "index",
          "type": "uint256"
        }
      ],
      "name": "get1",
      "outputs": [
        {
          "components": [
            {
              "internalType": "uint256",
              "name": "value",
              "type": "uint256"
            },
            {
              "internalType": "uint256",
              "name": "timestamp",
              "type": "uint256"
            }
          ],
          "internalType": "struct Stats.Item",
          "name": "",
          "type": "tuple"
        }
      ],
      "stateMutability": "view",
      "type": "function"
    },
    {
      "inputs": [
        {
          "internalType": "uint256",
          "name": "index",
          "type": "uint256"
        }
      ],
      "name": "getNow",
      "outputs": [
        {
          "internalType": "uint256",
          "name": "",
          "type": "uint256"
        }
      ],
      "stateMutability": "view",
      "type": "function"
    }
  ],
  "bytecode": "0x608060405234801561001057600080fd5b506120c5806100206000396000f3fe608060405234801561001057600080fd5b50600436106100a95760003560e01c80638da5cb5b116100715780638da5cb5b14610150578063941709481461016e5780639c117f0f1461019e578063c5015ba9146101ce578063f2fde38b146101fe578063f321b3051461021a576100a9565b80630415f8a8146100ae5780630f5bcc72146100de5780633d73a17c146100fa578063715018a61461011657806378a2382814610120575b600080fd5b6100c860048036036100c39190810190611951565b610236565b6040516100d59190611e43565b60405180910390f35b6100f860048036036100f391908101906118c1565b61028c565b005b610114600480360361010f9190810190611898565b6104be565b005b61011e610698565b005b61013a60048036036101359190810190611951565b6107f0565b6040516101479190611e43565b60405180910390f35b6101586107fa565b6040516101659190611d15565b60405180910390f35b6101886004803603610183919081019061197a565b610824565b6040516101959190611e0d565b60405180910390f35b6101b860048036036101b39190810190611951565b610881565b6040516101c59190611e28565b60405180910390f35b6101e860048036036101e3919081019061197a565b6108c2565b6040516101f59190611e43565b60405180910390f35b6102186004803603610213919081019061182e565b61095d565b005b610234600480360361022f91908101906118fd565b610b24565b005b600080600190505b6098548110156102865761027761026884609a6000858152602001908152602001600020546108c2565b83610d3090919063ffffffff16565b9150808060010191505061023e565b50919050565b60008090506060609e60009054906101000a900473ffffffffffffffffffffffffffffffffffffffff1673ffffffffffffffffffffffffffffffffffffffff1663ce6ccfaf336040518263ffffffff1660e01b81526004016102ee9190611d30565b60006040518083038186803b15801561030657600080fd5b505afa15801561031a573d6000803e3d6000fd5b505050506040513d6000823e3d601f19601f820116820180604052506103439190810190611857565b905060008090505b81518110156103ce5781818151811061036057fe5b60200260200101516040516020016103789190611ce7565b60405160208183030381529060405280519060200120609f6040516020016103a09190611cfe565b6040516020818303038152906040528051906020012014156103c157600192505b808060010191505061034b565b506001151582151514610416576040517f08c379a000000000000000000000000000000000000000000000000000000000815260040161040d90611ded565b60405180910390fd5b61041f84610d85565b82609c6000609b5481526020019081526020016000206000018190555042609c6000609b5481526020019081526020016000206001018190555060008090505b60978054905081101561049b5761048e6097828154811061047c57fe5b90600052602060002001548686610df5565b808060010191505061045f565b506104b26001609b54610d3090919063ffffffff16565b609b8190555050505050565b60008090506060609e60009054906101000a900473ffffffffffffffffffffffffffffffffffffffff1673ffffffffffffffffffffffffffffffffffffffff1663ce6ccfaf336040518263ffffffff1660e01b81526004016105209190611d30565b60006040518083038186803b15801561053857600080fd5b505afa15801561054c573d6000803e3d6000fd5b505050506040513d6000823e3d601f19601f820116820180604052506105759190810190611857565b905060008090505b81518110156106005781818151811061059257fe5b60200260200101516040516020016105aa9190611ce7565b60405160208183030381529060405280519060200120609f6040516020016105d29190611cfe565b6040516020818303038152906040528051906020012014156105f357600192505b808060010191505061057d565b506001151582151514610648576040517f08c379a000000000000000000000000000000000000000000000000000000000815260040161063f90611ded565b60405180910390fd5b61065183610d85565b60008090505b609780549050811015610692576106856097828154811061067457fe5b906000526020600020015485610f2e565b8080600101915050610657565b50505050565b6106a06110fb565b73ffffffffffffffffffffffffffffffffffffffff16606560009054906101000a900473ffffffffffffffffffffffffffffffffffffffff1673ffffffffffffffffffffffffffffffffffffffff161461072f576040517f08c379a000000000000000000000000000000000000000000000000000000000815260040161072690611dad565b60405180910390fd5b600073ffffffffffffffffffffffffffffffffffffffff16606560009054906101000a900473ffffffffffffffffffffffffffffffffffffffff1673ffffffffffffffffffffffffffffffffffffffff167f8be0079c531659141344cd1fd0a4f28419497f9722a3daafe3b4186f6b6457e060405160405180910390a36000606560006101000a81548173ffffffffffffffffffffffffffffffffffffffff021916908373ffffffffffffffffffffffffffffffffffffffff160217905550565b6000429050919050565b6000606560009054906101000a900473ffffffffffffffffffffffffffffffffffffffff16905090565b61082c6115de565b609d600084815260200190815260200160002060008381526020019081526020016000206040518060600160405290816000820154815260200160018201548152602001600282015481525050905092915050565b6108896115ff565b609c6000838152602001908152602001600020604051806040016040529081600082015481526020016001820154815250509050919050565b600080609d6000858152602001908152602001600020600084815260200190815260200160002060010154111561095757610954609d6000858152602001908152602001600020600084815260200190815260200160002060010154609d600086815260200190815260200160002060008581526020019081526020016000206000015461110390919063ffffffff16565b90505b92915050565b6109656110fb565b73ffffffffffffffffffffffffffffffffffffffff16606560009054906101000a900473ffffffffffffffffffffffffffffffffffffffff1673ffffffffffffffffffffffffffffffffffffffff16146109f4576040517f08c379a00000000000000000000000000000000000000000000000000000000081526004016109eb90611dad565b60405180910390fd5b600073ffffffffffffffffffffffffffffffffffffffff168173ffffffffffffffffffffffffffffffffffffffff161415610a64576040517f08c379a0000000000000000000000000000000000000000000000000000000008152600401610a5b90611d6d565b60405180910390fd5b8073ffffffffffffffffffffffffffffffffffffffff16606560009054906101000a900473ffffffffffffffffffffffffffffffffffffffff1673ffffffffffffffffffffffffffffffffffffffff167f8be0079c531659141344cd1fd0a4f28419497f9722a3daafe3b4186f6b6457e060405160405180910390a380606560006101000a81548173ffffffffffffffffffffffffffffffffffffffff021916908373ffffffffffffffffffffffffffffffffffffffff16021790555050565b600060019054906101000a900460ff1680610b435750610b4261114d565b5b80610b5a57506000809054906101000a900460ff16155b610b99576040517f08c379a0000000000000000000000000000000000000000000000000000000008152600401610b9090611dcd565b60405180910390fd5b60008060019054906101000a900460ff161590508015610be9576001600060016101000a81548160ff02191690831515021790555060016000806101000a81548160ff0219169083151502179055505b610bf1611164565b82609e60006101000a81548173ffffffffffffffffffffffffffffffffffffffff021916908373ffffffffffffffffffffffffffffffffffffffff16021790555081609f9080519060200190610c48929190611619565b506097620151809080600181540180825580915050600190039060005260206000200160009091909190915055609762093a809080600181540180825580915050600190039060005260206000200160009091909190915055609762278d00908060018154018082558091505060019003906000526020600020016000909190919091505560976301e1338090806001815401808255809150506001900390600052602060002001600090919091909150556001609b8190555060016098819055508015610d2b5760008060016101000a81548160ff0219169083151502179055505b505050565b600080828401905083811015610d7b576040517f08c379a0000000000000000000000000000000000000000000000000000000008152600401610d7290611d8d565b60405180910390fd5b8091505092915050565b600060996000838152602001908152602001600020541415610df257609854609960008381526020019081526020016000208190555080609a6000609854815260200190815260200160002081905550610deb6001609854610d3090919063ffffffff16565b6098819055505b50565b610dff8383610f2e565b6000609d60008581526020019081526020016000206000848152602001908152602001600020600201541415610e5e57609b54609d60008581526020019081526020016000206000848152602001908152602001600020600201819055505b610e9881609d6000868152602001908152602001600020600085815260200190815260200160002060000154610d3090919063ffffffff16565b609d6000858152602001908152602001600020600084815260200190815260200160002060000181905550610efe6001609d6000868152602001908152602001600020600085815260200190815260200160002060010154610d3090919063ffffffff16565b609d6000858152602001908152602001600020600084815260200190815260200160002060010181905550505050565b6000609d60008481526020019081526020016000206000838152602001908152602001600020600201541415610f63576110f7565b6000609d600084815260200190815260200160002060008381526020019081526020016000206002015490505b82610fba609c6000848152602001908152602001600020600101544261125d90919063ffffffff16565b118015610fc85750609b5481105b156110f55761101d609c600083815260200190815260200160002060000154609d600086815260200190815260200160002060008581526020019081526020016000206000015461125d90919063ffffffff16565b609d60008581526020019081526020016000206000848152602001908152602001600020600001819055506110836001609d600086815260200190815260200160002060008581526020019081526020016000206001015461125d90919063ffffffff16565b609d60008581526020019081526020016000206000848152602001908152602001600020600101819055506110c2600182610d3090919063ffffffff16565b905080609d6000858152602001908152602001600020600084815260200190815260200160002060020181905550610f90565b505b5050565b600033905090565b600061114583836040518060400160405280601a81526020017f536166654d6174683a206469766973696f6e206279207a65726f0000000000008152506112a7565b905092915050565b6000803090506000813b9050600081149250505090565b600060019054906101000a900460ff1680611183575061118261114d565b5b8061119a57506000809054906101000a900460ff16155b6111d9576040517f08c379a00000000000000000000000000000000000000000000000000000000081526004016111d090611dcd565b60405180910390fd5b60008060019054906101000a900460ff161590508015611229576001600060016101000a81548160ff02191690831515021790555060016000806101000a81548160ff0219169083151502179055505b611231611308565b6112396113f1565b801561125a5760008060016101000a81548160ff0219169083151502179055505b50565b600061129f83836040518060400160405280601e81526020017f536166654d6174683a207375627472616374696f6e206f766572666c6f770000815250611583565b905092915050565b600080831182906112ee576040517f08c379a00000000000000000000000000000000000000000000000000000000081526004016112e59190611d4b565b60405180910390fd5b5060008385816112fa57fe5b049050809150509392505050565b600060019054906101000a900460ff1680611327575061132661114d565b5b8061133e57506000809054906101000a900460ff16155b61137d576040517f08c379a000000000000000000000000000000000000000000000000000000000815260040161137490611dcd565b60405180910390fd5b60008060019054906101000a900460ff1615905080156113cd576001600060016101000a81548160ff02191690831515021790555060016000806101000a81548160ff0219169083151502179055505b80156113ee5760008060016101000a81548160ff0219169083151502179055505b50565b600060019054906101000a900460ff1680611410575061140f61114d565b5b8061142757506000809054906101000a900460ff16155b611466576040517f08c379a000000000000000000000000000000000000000000000000000000000815260040161145d90611dcd565b60405180910390fd5b60008060019054906101000a900460ff1615905080156114b6576001600060016101000a81548160ff02191690831515021790555060016000806101000a81548160ff0219169083151502179055505b60006114c06110fb565b905080606560006101000a81548173ffffffffffffffffffffffffffffffffffffffff021916908373ffffffffffffffffffffffffffffffffffffffff1602179055508073ffffffffffffffffffffffffffffffffffffffff16600073ffffffffffffffffffffffffffffffffffffffff167f8be0079c531659141344cd1fd0a4f28419497f9722a3daafe3b4186f6b6457e060405160405180910390a35080156115805760008060016101000a81548160ff0219169083151502179055505b50565b60008383111582906115cb576040517f08c379a00000000000000000000000000000000000000000000000000000000081526004016115c29190611d4b565b60405180910390fd5b5060008385039050809150509392505050565b60405180606001604052806000815260200160008152602001600081525090565b604051806040016040528060008152602001600081525090565b828054600181600116156101000203166002900490600052602060002090601f016020900481019282601f1061165a57805160ff1916838001178555611688565b82800160010185558215611688579182015b8281111561168757825182559160200191906001019061166c565b5b5090506116959190611699565b5090565b6116bb91905b808211156116b757600081600090555060010161169f565b5090565b90565b6000813590506116cd81612033565b92915050565b600082601f8301126116e457600080fd5b81516116f76116f282611e8b565b611e5e565b9150818183526020840193506020810190508360005b8381101561173d57815186016117238882611771565b84526020840193506020830192505060018101905061170d565b5050505092915050565b6000813590506117568161204a565b92915050565b60008135905061176b81612061565b92915050565b600082601f83011261178257600080fd5b815161179561179082611eb3565b611e5e565b915080825260208301602083018583830111156117b157600080fd5b6117bc838284611fef565b50505092915050565b600082601f8301126117d657600080fd5b81356117e96117e482611edf565b611e5e565b9150808252602083016020830185838301111561180557600080fd5b611810838284611fe0565b50505092915050565b60008135905061182881612078565b92915050565b60006020828403121561184057600080fd5b600061184e848285016116be565b91505092915050565b60006020828403121561186957600080fd5b600082015167ffffffffffffffff81111561188357600080fd5b61188f848285016116d3565b91505092915050565b6000602082840312156118aa57600080fd5b60006118b884828501611747565b91505092915050565b600080604083850312156118d457600080fd5b60006118e285828601611747565b92505060206118f385828601611819565b9150509250929050565b6000806040838503121561191057600080fd5b600061191e8582860161175c565b925050602083013567ffffffffffffffff81111561193b57600080fd5b611947858286016117c5565b9150509250929050565b60006020828403121561196357600080fd5b600061197184828501611819565b91505092915050565b6000806040838503121561198d57600080fd5b600061199b85828601611819565b92505060206119ac85828601611747565b9150509250929050565b6119bf81611faa565b82525050565b6119ce81611f52565b82525050565b60006119df82611f2b565b6119e98185611f36565b93506119f9818560208601611fef565b611a0281612022565b840191505092915050565b6000611a1882611f20565b611a228185611f47565b9350611a32818560208601611fef565b80840191505092915050565b600081546001811660008114611a5b5760018114611a8057611ac4565b607f6002830416611a6c8187611f47565b955060ff1983168652808601935050611ac4565b60028204611a8e8187611f47565b9550611a9985611f0b565b60005b82811015611abb57815481890152600182019150602081019050611a9c565b82880195505050505b505092915050565b6000611ad9602683611f36565b91507f4f776e61626c653a206e6577206f776e657220697320746865207a65726f206160008301527f64647265737300000000000000000000000000000000000000000000000000006020830152604082019050919050565b6000611b3f601b83611f36565b91507f536166654d6174683a206164646974696f6e206f766572666c6f7700000000006000830152602082019050919050565b6000611b7f602083611f36565b91507f4f776e61626c653a2063616c6c6572206973206e6f7420746865206f776e65726000830152602082019050919050565b6000611bbf602e83611f36565b91507f436f6e747261637420696e7374616e63652068617320616c726561647920626560008301527f656e20696e697469616c697a65640000000000000000000000000000000000006020830152604082019050919050565b6000611c25601a83611f36565b91507f53656e646572206973206e6f7420696e2077686974656c6973740000000000006000830152602082019050919050565b606082016000820151611c6e6000850182611cc9565b506020820151611c816020850182611cc9565b506040820151611c946040850182611cc9565b50505050565b604082016000820151611cb06000850182611cc9565b506020820151611cc36020850182611cc9565b50505050565b611cd281611fa0565b82525050565b611ce181611fa0565b82525050565b6000611cf38284611a0d565b915081905092915050565b6000611d0a8284611a3e565b915081905092915050565b6000602082019050611d2a60008301846119c5565b92915050565b6000602082019050611d4560008301846119b6565b92915050565b60006020820190508181036000830152611d6581846119d4565b905092915050565b60006020820190508181036000830152611d8681611acc565b9050919050565b60006020820190508181036000830152611da681611b32565b9050919050565b60006020820190508181036000830152611dc681611b72565b9050919050565b60006020820190508181036000830152611de681611bb2565b9050919050565b60006020820190508181036000830152611e0681611c18565b9050919050565b6000606082019050611e226000830184611c58565b92915050565b6000604082019050611e3d6000830184611c9a565b92915050565b6000602082019050611e586000830184611cd8565b92915050565b6000604051905081810181811067ffffffffffffffff82111715611e8157600080fd5b8060405250919050565b600067ffffffffffffffff821115611ea257600080fd5b602082029050602081019050919050565b600067ffffffffffffffff821115611eca57600080fd5b601f19601f8301169050602081019050919050565b600067ffffffffffffffff821115611ef657600080fd5b601f19601f8301169050602081019050919050565b60008190508160005260206000209050919050565b600081519050919050565b600081519050919050565b600082825260208201905092915050565b600081905092915050565b6000611f5d82611f80565b9050919050565b6000819050919050565b6000611f7982611f52565b9050919050565b600073ffffffffffffffffffffffffffffffffffffffff82169050919050565b6000819050919050565b6000611fb582611fbc565b9050919050565b6000611fc782611fce565b9050919050565b6000611fd982611f80565b9050919050565b82818337600083830152505050565b60005b8381101561200d578082015181840152602081019050611ff2565b8381111561201c576000848401525b50505050565b6000601f19601f8301169050919050565b61203c81611f52565b811461204757600080fd5b50565b61205381611f64565b811461205e57600080fd5b50565b61206a81611f6e565b811461207557600080fd5b50565b61208181611fa0565b811461208c57600080fd5b5056fea2646970667358221220a54928a109b3c3b4160cdea2c58b37be22137af5f97cd72c4e5761b88bd0e1d564736f6c63430006020033",
  "source": "pragma solidity >=0.6.0 <0.7.0;\r\npragma experimental ABIEncoderV2;\r\n\r\nimport \"../Stats.sol\";\r\n\r\n\r\ncontract StatsMock is Stats {\r\n     \r\n     function getStats(uint256 period, bytes32 tag) public view returns (Data memory) {\r\n         return stats[period][tag];\r\n     }\r\n     \r\n     function get1(uint256 index) public view returns(Item memory) {\r\n         return data[index];\r\n     }\r\n     function getNow(uint256 index) public view returns(uint256) {\r\n         return now;\r\n     }\r\n}",
  "sourcePath": "/mnt/g/project/2021/intercoin/statsContract/contracts/mock/StatsMock.sol",
  "compiler": {
    "name": "solc",
    "version": "0.6.2+commit.bacdbe57.Emscripten.clang"
  },
  "schemaVersion": "3.3.4",
  "updatedAt": "2021-03-10T20:17:47.806Z",
  "devdoc": {
    "methods": {
      "avgByTag(uint256,bytes32)": {
        "params": {
          "period": "period in seconds enum(86400,604800,2592000,31536000) ie STATS_DAY,STATS_WEEK,STATS_MONTH,STATS_YEAR",
          "tag": "tagname"
        }
      },
      "avgSumByAllTags(uint256)": {
        "params": {
          "period": "period in seconds enum(86400,604800,2592000,31536000) ie STATS_DAY,STATS_WEEK,STATS_MONTH,STATS_YEAR"
        }
      },
      "init(address,string)": {
        "params": {
          "community": "address of CommunityContract",
          "roleName": "whitelist role name"
        }
      },
      "owner()": {
        "details": "Returns the address of the current owner."
      },
      "record(bytes32,uint256)": {
        "params": {
          "tag": "tagname",
          "value": "price,fraction etc"
        }
      },
      "renounceOwnership()": {
        "details": "Leaves the contract without owner. It will not be possible to call `onlyOwner` functions anymore. Can only be called by the current owner.     * NOTE: Renouncing ownership will leave the contract without an owner, thereby removing any functionality that is only available to the owner."
      },
      "transferOwnership(address)": {
        "details": "Transfers ownership of the contract to a new account (`newOwner`). Can only be called by the current owner."
      }
    }
  },
  "userdoc": {
    "methods": {}
  }
}